{
  "_format": "hh-sol-artifact-1",
  "contractName": "NFT_marketPlace",
  "sourceName": "contracts/NFT_marketPlace.sol",
  "abi": [
    {
      "inputs": [],
      "stateMutability": "nonpayable",
      "type": "constructor"
    },
    {
      "inputs": [
        {
          "internalType": "address",
          "name": "sender",
          "type": "address"
        },
        {
          "internalType": "uint256",
          "name": "tokenId",
          "type": "uint256"
        },
        {
          "internalType": "address",
          "name": "owner",
          "type": "address"
        }
      ],
      "name": "ERC721IncorrectOwner",
      "type": "error"
    },
    {
      "inputs": [
        {
          "internalType": "address",
          "name": "operator",
          "type": "address"
        },
        {
          "internalType": "uint256",
          "name": "tokenId",
          "type": "uint256"
        }
      ],
      "name": "ERC721InsufficientApproval",
      "type": "error"
    },
    {
      "inputs": [
        {
          "internalType": "address",
          "name": "approver",
          "type": "address"
        }
      ],
      "name": "ERC721InvalidApprover",
      "type": "error"
    },
    {
      "inputs": [
        {
          "internalType": "address",
          "name": "operator",
          "type": "address"
        }
      ],
      "name": "ERC721InvalidOperator",
      "type": "error"
    },
    {
      "inputs": [
        {
          "internalType": "address",
          "name": "owner",
          "type": "address"
        }
      ],
      "name": "ERC721InvalidOwner",
      "type": "error"
    },
    {
      "inputs": [
        {
          "internalType": "address",
          "name": "receiver",
          "type": "address"
        }
      ],
      "name": "ERC721InvalidReceiver",
      "type": "error"
    },
    {
      "inputs": [
        {
          "internalType": "address",
          "name": "sender",
          "type": "address"
        }
      ],
      "name": "ERC721InvalidSender",
      "type": "error"
    },
    {
      "inputs": [
        {
          "internalType": "uint256",
          "name": "tokenId",
          "type": "uint256"
        }
      ],
      "name": "ERC721NonexistentToken",
      "type": "error"
    },
    {
      "anonymous": false,
      "inputs": [
        {
          "indexed": true,
          "internalType": "address",
          "name": "owner",
          "type": "address"
        },
        {
          "indexed": true,
          "internalType": "address",
          "name": "approved",
          "type": "address"
        },
        {
          "indexed": true,
          "internalType": "uint256",
          "name": "tokenId",
          "type": "uint256"
        }
      ],
      "name": "Approval",
      "type": "event"
    },
    {
      "anonymous": false,
      "inputs": [
        {
          "indexed": true,
          "internalType": "address",
          "name": "owner",
          "type": "address"
        },
        {
          "indexed": true,
          "internalType": "address",
          "name": "operator",
          "type": "address"
        },
        {
          "indexed": false,
          "internalType": "bool",
          "name": "approved",
          "type": "bool"
        }
      ],
      "name": "ApprovalForAll",
      "type": "event"
    },
    {
      "anonymous": false,
      "inputs": [
        {
          "indexed": false,
          "internalType": "uint256",
          "name": "_fromTokenId",
          "type": "uint256"
        },
        {
          "indexed": false,
          "internalType": "uint256",
          "name": "_toTokenId",
          "type": "uint256"
        }
      ],
      "name": "BatchMetadataUpdate",
      "type": "event"
    },
    {
      "anonymous": false,
      "inputs": [
        {
          "indexed": false,
          "internalType": "uint256",
          "name": "_tokenId",
          "type": "uint256"
        }
      ],
      "name": "MetadataUpdate",
      "type": "event"
    },
    {
      "anonymous": false,
      "inputs": [
        {
          "indexed": true,
          "internalType": "uint256",
          "name": "tokenId",
          "type": "uint256"
        },
        {
          "indexed": true,
          "internalType": "address",
          "name": "owner",
          "type": "address"
        },
        {
          "indexed": false,
          "internalType": "uint256",
          "name": "listingPrice",
          "type": "uint256"
        }
      ],
      "name": "NFTCreatedOrListed",
      "type": "event"
    },
    {
      "anonymous": false,
      "inputs": [
        {
          "indexed": true,
          "internalType": "address",
          "name": "from",
          "type": "address"
        },
        {
          "indexed": true,
          "internalType": "address",
          "name": "to",
          "type": "address"
        },
        {
          "indexed": true,
          "internalType": "uint256",
          "name": "tokenId",
          "type": "uint256"
        }
      ],
      "name": "Transfer",
      "type": "event"
    },
    {
      "inputs": [
        {
          "internalType": "uint256",
          "name": "",
          "type": "uint256"
        }
      ],
      "name": "NFT",
      "outputs": [
        {
          "internalType": "address",
          "name": "owner",
          "type": "address"
        },
        {
          "internalType": "address",
          "name": "creatorAddress",
          "type": "address"
        },
        {
          "internalType": "bool",
          "name": "isListed",
          "type": "bool"
        },
        {
          "internalType": "uint256",
          "name": "listingPrice",
          "type": "uint256"
        }
      ],
      "stateMutability": "view",
      "type": "function"
    },
    {
      "inputs": [
        {
          "internalType": "address",
          "name": "to",
          "type": "address"
        },
        {
          "internalType": "uint256",
          "name": "tokenId",
          "type": "uint256"
        }
      ],
      "name": "approve",
      "outputs": [],
      "stateMutability": "nonpayable",
      "type": "function"
    },
    {
      "inputs": [
        {
          "internalType": "address",
          "name": "owner",
          "type": "address"
        }
      ],
      "name": "balanceOf",
      "outputs": [
        {
          "internalType": "uint256",
          "name": "",
          "type": "uint256"
        }
      ],
      "stateMutability": "view",
      "type": "function"
    },
    {
      "inputs": [
        {
          "internalType": "uint256",
          "name": "tokenId",
          "type": "uint256"
        }
      ],
      "name": "buyNFT",
      "outputs": [
        {
          "internalType": "bool",
          "name": "",
          "type": "bool"
        }
      ],
      "stateMutability": "payable",
      "type": "function"
    },
    {
      "inputs": [],
      "name": "commision",
      "outputs": [
        {
          "internalType": "uint256",
          "name": "",
          "type": "uint256"
        }
      ],
      "stateMutability": "view",
      "type": "function"
    },
    {
      "inputs": [
        {
          "internalType": "uint256",
          "name": "price",
          "type": "uint256"
        },
        {
          "internalType": "string",
          "name": "tokenURI",
          "type": "string"
        }
      ],
      "name": "createNFT",
      "outputs": [
        {
          "internalType": "uint256",
          "name": "",
          "type": "uint256"
        }
      ],
      "stateMutability": "nonpayable",
      "type": "function"
    },
    {
      "inputs": [
        {
          "internalType": "uint256",
          "name": "tokenId",
          "type": "uint256"
        }
      ],
      "name": "getApproved",
      "outputs": [
        {
          "internalType": "address",
          "name": "",
          "type": "address"
        }
      ],
      "stateMutability": "view",
      "type": "function"
    },
    {
      "inputs": [],
      "name": "getListedNFTS",
      "outputs": [
        {
          "components": [
            {
              "internalType": "address",
              "name": "owner",
              "type": "address"
            },
            {
              "internalType": "address",
              "name": "creatorAddress",
              "type": "address"
            },
            {
              "internalType": "bool",
              "name": "isListed",
              "type": "bool"
            },
            {
              "internalType": "uint256",
              "name": "listingPrice",
              "type": "uint256"
            }
          ],
          "internalType": "struct NFT_marketPlace.nftInfo[]",
          "name": "",
          "type": "tuple[]"
        }
      ],
      "stateMutability": "view",
      "type": "function"
    },
    {
      "inputs": [],
      "name": "getMyListedNFTS",
      "outputs": [
        {
          "components": [
            {
              "internalType": "address",
              "name": "owner",
              "type": "address"
            },
            {
              "internalType": "address",
              "name": "creatorAddress",
              "type": "address"
            },
            {
              "internalType": "bool",
              "name": "isListed",
              "type": "bool"
            },
            {
              "internalType": "uint256",
              "name": "listingPrice",
              "type": "uint256"
            }
          ],
          "internalType": "struct NFT_marketPlace.nftInfo[]",
          "name": "",
          "type": "tuple[]"
        }
      ],
      "stateMutability": "view",
      "type": "function"
    },
    {
      "inputs": [],
      "name": "getMyNFTS",
      "outputs": [
        {
          "components": [
            {
              "internalType": "address",
              "name": "owner",
              "type": "address"
            },
            {
              "internalType": "address",
              "name": "creatorAddress",
              "type": "address"
            },
            {
              "internalType": "bool",
              "name": "isListed",
              "type": "bool"
            },
            {
              "internalType": "uint256",
              "name": "listingPrice",
              "type": "uint256"
            }
          ],
          "internalType": "struct NFT_marketPlace.nftInfo[]",
          "name": "",
          "type": "tuple[]"
        }
      ],
      "stateMutability": "view",
      "type": "function"
    },
    {
      "inputs": [
        {
          "internalType": "address",
          "name": "owner",
          "type": "address"
        },
        {
          "internalType": "address",
          "name": "operator",
          "type": "address"
        }
      ],
      "name": "isApprovedForAll",
      "outputs": [
        {
          "internalType": "bool",
          "name": "",
          "type": "bool"
        }
      ],
      "stateMutability": "view",
      "type": "function"
    },
    {
      "inputs": [],
      "name": "name",
      "outputs": [
        {
          "internalType": "string",
          "name": "",
          "type": "string"
        }
      ],
      "stateMutability": "view",
      "type": "function"
    },
    {
      "inputs": [
        {
          "internalType": "uint256",
          "name": "tokenId",
          "type": "uint256"
        }
      ],
      "name": "ownerOf",
      "outputs": [
        {
          "internalType": "address",
          "name": "",
          "type": "address"
        }
      ],
      "stateMutability": "view",
      "type": "function"
    },
    {
      "inputs": [
        {
          "internalType": "uint256",
          "name": "tokenId",
          "type": "uint256"
        },
        {
          "internalType": "uint256",
          "name": "price",
          "type": "uint256"
        }
      ],
      "name": "resellNFT",
      "outputs": [
        {
          "internalType": "string",
          "name": "",
          "type": "string"
        }
      ],
      "stateMutability": "nonpayable",
      "type": "function"
    },
    {
      "inputs": [
        {
          "internalType": "address",
          "name": "from",
          "type": "address"
        },
        {
          "internalType": "address",
          "name": "to",
          "type": "address"
        },
        {
          "internalType": "uint256",
          "name": "tokenId",
          "type": "uint256"
        }
      ],
      "name": "safeTransferFrom",
      "outputs": [],
      "stateMutability": "nonpayable",
      "type": "function"
    },
    {
      "inputs": [
        {
          "internalType": "address",
          "name": "from",
          "type": "address"
        },
        {
          "internalType": "address",
          "name": "to",
          "type": "address"
        },
        {
          "internalType": "uint256",
          "name": "tokenId",
          "type": "uint256"
        },
        {
          "internalType": "bytes",
          "name": "data",
          "type": "bytes"
        }
      ],
      "name": "safeTransferFrom",
      "outputs": [],
      "stateMutability": "nonpayable",
      "type": "function"
    },
    {
      "inputs": [
        {
          "internalType": "address",
          "name": "operator",
          "type": "address"
        },
        {
          "internalType": "bool",
          "name": "approved",
          "type": "bool"
        }
      ],
      "name": "setApprovalForAll",
      "outputs": [],
      "stateMutability": "nonpayable",
      "type": "function"
    },
    {
      "inputs": [
        {
          "internalType": "uint256",
          "name": "val",
          "type": "uint256"
        }
      ],
      "name": "setCommision",
      "outputs": [
        {
          "internalType": "bool",
          "name": "",
          "type": "bool"
        }
      ],
      "stateMutability": "nonpayable",
      "type": "function"
    },
    {
      "inputs": [
        {
          "internalType": "bytes4",
          "name": "interfaceId",
          "type": "bytes4"
        }
      ],
      "name": "supportsInterface",
      "outputs": [
        {
          "internalType": "bool",
          "name": "",
          "type": "bool"
        }
      ],
      "stateMutability": "view",
      "type": "function"
    },
    {
      "inputs": [],
      "name": "symbol",
      "outputs": [
        {
          "internalType": "string",
          "name": "",
          "type": "string"
        }
      ],
      "stateMutability": "view",
      "type": "function"
    },
    {
      "inputs": [
        {
          "internalType": "uint256",
          "name": "tokenId",
          "type": "uint256"
        }
      ],
      "name": "tokenURI",
      "outputs": [
        {
          "internalType": "string",
          "name": "",
          "type": "string"
        }
      ],
      "stateMutability": "view",
      "type": "function"
    },
    {
      "inputs": [
        {
          "internalType": "address",
          "name": "from",
          "type": "address"
        },
        {
          "internalType": "address",
          "name": "to",
          "type": "address"
        },
        {
          "internalType": "uint256",
          "name": "tokenId",
          "type": "uint256"
        }
      ],
      "name": "transferFrom",
      "outputs": [],
      "stateMutability": "nonpayable",
      "type": "function"
    }
  ],
  "bytecode": "0x60806040526608e1bc9bf040006009553480156200001c57600080fd5b506040518060400160405280600f81526020017f4e4654204d61726b6574506c61636500000000000000000000000000000000008152506040518060400160405280600681526020017f4e46544d4b54000000000000000000000000000000000000000000000000000081525081600090816200009a919062000380565b508060019081620000ac919062000380565b5050506000600781905550600060088190555033600a60006101000a81548173ffffffffffffffffffffffffffffffffffffffff021916908373ffffffffffffffffffffffffffffffffffffffff16021790555062000467565b600081519050919050565b7f4e487b7100000000000000000000000000000000000000000000000000000000600052604160045260246000fd5b7f4e487b7100000000000000000000000000000000000000000000000000000000600052602260045260246000fd5b600060028204905060018216806200018857607f821691505b6020821081036200019e576200019d62000140565b5b50919050565b60008190508160005260206000209050919050565b60006020601f8301049050919050565b600082821b905092915050565b600060088302620002087fffffffffffffffffffffffffffffffffffffffffffffffffffffffffffffffff82620001c9565b620002148683620001c9565b95508019841693508086168417925050509392505050565b6000819050919050565b6000819050919050565b6000620002616200025b62000255846200022c565b62000236565b6200022c565b9050919050565b6000819050919050565b6200027d8362000240565b620002956200028c8262000268565b848454620001d6565b825550505050565b600090565b620002ac6200029d565b620002b981848462000272565b505050565b5b81811015620002e157620002d5600082620002a2565b600181019050620002bf565b5050565b601f8211156200033057620002fa81620001a4565b6200030584620001b9565b8101602085101562000315578190505b6200032d6200032485620001b9565b830182620002be565b50505b505050565b600082821c905092915050565b6000620003556000198460080262000335565b1980831691505092915050565b600062000370838362000342565b9150826002028217905092915050565b6200038b8262000106565b67ffffffffffffffff811115620003a757620003a662000111565b5b620003b382546200016f565b620003c0828285620002e5565b600060209050601f831160018114620003f85760008415620003e3578287015190505b620003ef858262000362565b8655506200045f565b601f1984166200040886620001a4565b60005b8281101562000432578489015182556001820191506020850194506020810190506200040b565b868310156200045257848901516200044e601f89168262000342565b8355505b6001600288020188555050505b505050505050565b613ece80620004776000396000f3fe6080604052600436106101355760003560e01c8063a22cb465116100ab578063b96f24951161006f578063b96f249514610466578063c296122314610491578063c87b56dd146104bc578063e985e9c5146104f9578063e9e8e96214610536578063f32b51241461056157610135565b8063a22cb4651461036f578063a9852ab614610398578063ac3dfc73146103d5578063b88d4fde14610412578063b95edbf91461043b57610135565b806333f418b8116100fd57806333f418b81461023157806342842e0e1461027157806351ed82881461029a5780636352211e146102ca57806370a082311461030757806395d89b411461034457610135565b806301ffc9a71461013a57806306fdde0314610177578063081812fc146101a2578063095ea7b3146101df57806323b872dd14610208575b600080fd5b34801561014657600080fd5b50610161600480360381019061015c9190612cf8565b61059e565b60405161016e9190612d40565b60405180910390f35b34801561018357600080fd5b5061018c6105ff565b6040516101999190612deb565b60405180910390f35b3480156101ae57600080fd5b506101c960048036038101906101c49190612e43565b610691565b6040516101d69190612eb1565b60405180910390f35b3480156101eb57600080fd5b5061020660048036038101906102019190612ef8565b6106ad565b005b34801561021457600080fd5b5061022f600480360381019061022a9190612f38565b6106c3565b005b34801561023d57600080fd5b5061025860048036038101906102539190612e43565b6107c5565b6040516102689493929190612f9a565b60405180910390f35b34801561027d57600080fd5b5061029860048036038101906102939190612f38565b610842565b005b6102b460048036038101906102af9190612e43565b610862565b6040516102c19190612d40565b60405180910390f35b3480156102d657600080fd5b506102f160048036038101906102ec9190612e43565b610baa565b6040516102fe9190612eb1565b60405180910390f35b34801561031357600080fd5b5061032e60048036038101906103299190612fdf565b610bbc565b60405161033b919061300c565b60405180910390f35b34801561035057600080fd5b50610359610c76565b6040516103669190612deb565b60405180910390f35b34801561037b57600080fd5b5061039660048036038101906103919190613053565b610d08565b005b3480156103a457600080fd5b506103bf60048036038101906103ba9190612e43565b610d1e565b6040516103cc9190612d40565b60405180910390f35b3480156103e157600080fd5b506103fc60048036038101906103f79190613093565b610dc0565b6040516104099190612deb565b60405180910390f35b34801561041e57600080fd5b5061043960048036038101906104349190613208565b610fcd565b005b34801561044757600080fd5b50610450610fea565b60405161045d919061300c565b60405180910390f35b34801561047257600080fd5b5061047b610ff0565b60405161048891906133bc565b60405180910390f35b34801561049d57600080fd5b506104a6611214565b6040516104b391906133bc565b60405180910390f35b3480156104c857600080fd5b506104e360048036038101906104de9190612e43565b611512565b6040516104f09190612deb565b60405180910390f35b34801561050557600080fd5b50610520600480360381019061051b91906133de565b611625565b60405161052d9190612d40565b60405180910390f35b34801561054257600080fd5b5061054b6116b9565b60405161055891906133bc565b60405180910390f35b34801561056d57600080fd5b50610588600480360381019061058391906134bf565b6119b9565b604051610595919061300c565b60405180910390f35b6000634906490660e01b7bffffffffffffffffffffffffffffffffffffffffffffffffffffffff1916827bffffffffffffffffffffffffffffffffffffffffffffffffffffffff191614806105f857506105f782611ba7565b5b9050919050565b60606000805461060e9061354a565b80601f016020809104026020016040519081016040528092919081815260200182805461063a9061354a565b80156106875780601f1061065c57610100808354040283529160200191610687565b820191906000526020600020905b81548152906001019060200180831161066a57829003601f168201915b5050505050905090565b600061069c82611c89565b506106a682611d11565b9050919050565b6106bf82826106ba611d4e565b611d56565b5050565b600073ffffffffffffffffffffffffffffffffffffffff168273ffffffffffffffffffffffffffffffffffffffff16036107355760006040517f64a0ae9200000000000000000000000000000000000000000000000000000000815260040161072c9190612eb1565b60405180910390fd5b60006107498383610744611d4e565b611d68565b90508373ffffffffffffffffffffffffffffffffffffffff168173ffffffffffffffffffffffffffffffffffffffff16146107bf578382826040517f64283d7b0000000000000000000000000000000000000000000000000000000081526004016107b69392919061357b565b60405180910390fd5b50505050565b600b6020528060005260406000206000915090508060000160009054906101000a900473ffffffffffffffffffffffffffffffffffffffff16908060010160009054906101000a900473ffffffffffffffffffffffffffffffffffffffff16908060010160149054906101000a900460ff16908060020154905084565b61085d83838360405180602001604052806000815250610fcd565b505050565b600060011515600b600084815260200190815260200160002060010160149054906101000a900460ff161515146108ce576040517f08c379a00000000000000000000000000000000000000000000000000000000081526004016108c590613624565b60405180910390fd5b600954600b6000848152602001908152602001600020600201546108f29190613673565b341015610934576040517f08c379a000000000000000000000000000000000000000000000000000000000815260040161092b906136f3565b60405180910390fd5b3373ffffffffffffffffffffffffffffffffffffffff16600b600084815260200190815260200160002060000160009054906101000a900473ffffffffffffffffffffffffffffffffffffffff1673ffffffffffffffffffffffffffffffffffffffff16036109d8576040517f08c379a00000000000000000000000000000000000000000000000000000000081526004016109cf90613785565b60405180910390fd5b610a19600b600084815260200190815260200160002060000160009054906101000a900473ffffffffffffffffffffffffffffffffffffffff163384611f82565b6000600b600084815260200190815260200160002060000160009054906101000a900473ffffffffffffffffffffffffffffffffffffffff1690508073ffffffffffffffffffffffffffffffffffffffff166108fc600b6000868152602001908152602001600020600201549081150290604051600060405180830381858888f19350505050158015610ab0573d6000803e3d6000fd5b50600a60009054906101000a900473ffffffffffffffffffffffffffffffffffffffff1673ffffffffffffffffffffffffffffffffffffffff166108fc6009549081150290604051600060405180830381858888f19350505050158015610b1b573d6000803e3d6000fd5b5033600b600085815260200190815260200160002060000160006101000a81548173ffffffffffffffffffffffffffffffffffffffff021916908373ffffffffffffffffffffffffffffffffffffffff1602179055506000600b600085815260200190815260200160002060010160146101000a81548160ff0219169083151502179055506001915050919050565b6000610bb582611c89565b9050919050565b60008073ffffffffffffffffffffffffffffffffffffffff168273ffffffffffffffffffffffffffffffffffffffff1603610c2f5760006040517f89c62b64000000000000000000000000000000000000000000000000000000008152600401610c269190612eb1565b60405180910390fd5b600360008373ffffffffffffffffffffffffffffffffffffffff1673ffffffffffffffffffffffffffffffffffffffff168152602001908152602001600020549050919050565b606060018054610c859061354a565b80601f0160208091040260200160405190810160405280929190818152602001828054610cb19061354a565b8015610cfe5780601f10610cd357610100808354040283529160200191610cfe565b820191906000526020600020905b815481529060010190602001808311610ce157829003601f168201915b5050505050905090565b610d1a610d13611d4e565b83836120ef565b5050565b6000600a60009054906101000a900473ffffffffffffffffffffffffffffffffffffffff1673ffffffffffffffffffffffffffffffffffffffff163373ffffffffffffffffffffffffffffffffffffffff1614610db0576040517f08c379a0000000000000000000000000000000000000000000000000000000008152600401610da7906137f1565b60405180910390fd5b8160098190555060019050919050565b60603373ffffffffffffffffffffffffffffffffffffffff16600b600085815260200190815260200160002060000160009054906101000a900473ffffffffffffffffffffffffffffffffffffffff1673ffffffffffffffffffffffffffffffffffffffff1614610e66576040517f08c379a0000000000000000000000000000000000000000000000000000000008152600401610e5d90613883565b60405180910390fd5b60001515600b600085815260200190815260200160002060010160149054906101000a900460ff16151514610ed0576040517f08c379a0000000000000000000000000000000000000000000000000000000008152600401610ec7906138ef565b60405180910390fd5b60008211610f13576040517f08c379a0000000000000000000000000000000000000000000000000000000008152600401610f0a9061395b565b60405180910390fd5b6001600b600085815260200190815260200160002060010160146101000a81548160ff02191690831515021790555081600b6000858152602001908152602001600020600201819055503373ffffffffffffffffffffffffffffffffffffffff16837f63ed0349d75a3f799c687ea2cd41bed2284a1f7764e6d482d7a861d87ba4620184604051610fa4919061300c565b60405180910390a3604051806060016040528060218152602001613e7860219139905092915050565b610fd88484846106c3565b610fe48484848461225e565b50505050565b60095481565b60606000805b60085481101561104b57600b600082815260200190815260200160002060010160149054906101000a900460ff16156110385781806110349061397b565b9250505b80806110439061397b565b915050610ff6565b5060008167ffffffffffffffff811115611068576110676130dd565b5b6040519080825280602002602001820160405280156110a157816020015b61108e612c36565b8152602001906001900390816110865790505b5090506000805b60085481101561120a57600b600082815260200190815260200160002060010160149054906101000a900460ff16156111f757600b60008281526020019081526020016000206040518060800160405290816000820160009054906101000a900473ffffffffffffffffffffffffffffffffffffffff1673ffffffffffffffffffffffffffffffffffffffff1673ffffffffffffffffffffffffffffffffffffffff1681526020016001820160009054906101000a900473ffffffffffffffffffffffffffffffffffffffff1673ffffffffffffffffffffffffffffffffffffffff1673ffffffffffffffffffffffffffffffffffffffff1681526020016001820160149054906101000a900460ff161515151581526020016002820154815250508383815181106111dd576111dc6139c3565b5b602002602001018190525081806111f39061397b565b9250505b80806112029061397b565b9150506110a8565b5081935050505090565b60606000805b6008548110156112dc57600b600082815260200190815260200160002060010160149054906101000a900460ff1680156112b557503373ffffffffffffffffffffffffffffffffffffffff16600b600083815260200190815260200160002060000160009054906101000a900473ffffffffffffffffffffffffffffffffffffffff1673ffffffffffffffffffffffffffffffffffffffff16145b156112c95781806112c59061397b565b9250505b80806112d49061397b565b91505061121a565b5060008167ffffffffffffffff8111156112f9576112f86130dd565b5b60405190808252806020026020018201604052801561133257816020015b61131f612c36565b8152602001906001900390816113175790505b5090506000805b60085481101561150857600b600082815260200190815260200160002060010160149054906101000a900460ff1680156113d457503373ffffffffffffffffffffffffffffffffffffffff16600b600083815260200190815260200160002060000160009054906101000a900473ffffffffffffffffffffffffffffffffffffffff1673ffffffffffffffffffffffffffffffffffffffff16145b156114f557600b60008281526020019081526020016000206040518060800160405290816000820160009054906101000a900473ffffffffffffffffffffffffffffffffffffffff1673ffffffffffffffffffffffffffffffffffffffff1673ffffffffffffffffffffffffffffffffffffffff1681526020016001820160009054906101000a900473ffffffffffffffffffffffffffffffffffffffff1673ffffffffffffffffffffffffffffffffffffffff1673ffffffffffffffffffffffffffffffffffffffff1681526020016001820160149054906101000a900460ff161515151581526020016002820154815250508383815181106114db576114da6139c3565b5b602002602001018190525081806114f19061397b565b9250505b80806115009061397b565b915050611339565b5081935050505090565b606061151d82611c89565b50600060066000848152602001908152602001600020805461153e9061354a565b80601f016020809104026020016040519081016040528092919081815260200182805461156a9061354a565b80156115b75780601f1061158c576101008083540402835291602001916115b7565b820191906000526020600020905b81548152906001019060200180831161159a57829003601f168201915b5050505050905060006115c8612415565b905060008151036115dd578192505050611620565b6000825111156116125780826040516020016115fa929190613a2e565b60405160208183030381529060405292505050611620565b61161b8461242c565b925050505b919050565b6000600560008473ffffffffffffffffffffffffffffffffffffffff1673ffffffffffffffffffffffffffffffffffffffff16815260200190815260200160002060008373ffffffffffffffffffffffffffffffffffffffff1673ffffffffffffffffffffffffffffffffffffffff16815260200190815260200160002060009054906101000a900460ff16905092915050565b60606000805b60085481101561178257600b600082815260200190815260200160002060010160149054906101000a900460ff1615801561175b57503373ffffffffffffffffffffffffffffffffffffffff16600b600083815260200190815260200160002060000160009054906101000a900473ffffffffffffffffffffffffffffffffffffffff1673ffffffffffffffffffffffffffffffffffffffff16145b1561176f57818061176b9061397b565b9250505b808061177a9061397b565b9150506116bf565b5060008167ffffffffffffffff81111561179f5761179e6130dd565b5b6040519080825280602002602001820160405280156117d857816020015b6117c5612c36565b8152602001906001900390816117bd5790505b5090506000805b6008548110156119af57600b600082815260200190815260200160002060010160149054906101000a900460ff1615801561187b57503373ffffffffffffffffffffffffffffffffffffffff16600b600083815260200190815260200160002060000160009054906101000a900473ffffffffffffffffffffffffffffffffffffffff1673ffffffffffffffffffffffffffffffffffffffff16145b1561199c57600b60008281526020019081526020016000206040518060800160405290816000820160009054906101000a900473ffffffffffffffffffffffffffffffffffffffff1673ffffffffffffffffffffffffffffffffffffffff1673ffffffffffffffffffffffffffffffffffffffff1681526020016001820160009054906101000a900473ffffffffffffffffffffffffffffffffffffffff1673ffffffffffffffffffffffffffffffffffffffff1673ffffffffffffffffffffffffffffffffffffffff1681526020016001820160149054906101000a900460ff16151515158152602001600282015481525050838381518110611982576119816139c3565b5b602002602001018190525081806119989061397b565b9250505b80806119a79061397b565b9150506117df565b5081935050505090565b60008083116119fd576040517f08c379a00000000000000000000000000000000000000000000000000000000081526004016119f490613a9e565b60405180910390fd5b60006008549050611a0e3382612495565b611a1881846124b3565b60405180608001604052803373ffffffffffffffffffffffffffffffffffffffff1681526020013373ffffffffffffffffffffffffffffffffffffffff16815260200160011515815260200185815250600b600083815260200190815260200160002060008201518160000160006101000a81548173ffffffffffffffffffffffffffffffffffffffff021916908373ffffffffffffffffffffffffffffffffffffffff16021790555060208201518160010160006101000a81548173ffffffffffffffffffffffffffffffffffffffff021916908373ffffffffffffffffffffffffffffffffffffffff16021790555060408201518160010160146101000a81548160ff0219169083151502179055506060820151816002015590505060086000815480929190611b499061397b565b91905055503373ffffffffffffffffffffffffffffffffffffffff16817f63ed0349d75a3f799c687ea2cd41bed2284a1f7764e6d482d7a861d87ba4620186604051611b95919061300c565b60405180910390a38091505092915050565b60007f80ac58cd000000000000000000000000000000000000000000000000000000007bffffffffffffffffffffffffffffffffffffffffffffffffffffffff1916827bffffffffffffffffffffffffffffffffffffffffffffffffffffffff19161480611c7257507f5b5e139f000000000000000000000000000000000000000000000000000000007bffffffffffffffffffffffffffffffffffffffffffffffffffffffff1916827bffffffffffffffffffffffffffffffffffffffffffffffffffffffff1916145b80611c825750611c818261250f565b5b9050919050565b600080611c9583612579565b9050600073ffffffffffffffffffffffffffffffffffffffff168173ffffffffffffffffffffffffffffffffffffffff1603611d0857826040517f7e273289000000000000000000000000000000000000000000000000000000008152600401611cff919061300c565b60405180910390fd5b80915050919050565b60006004600083815260200190815260200160002060009054906101000a900473ffffffffffffffffffffffffffffffffffffffff169050919050565b600033905090565b611d6383838360016125b6565b505050565b600080611d7484612579565b9050600073ffffffffffffffffffffffffffffffffffffffff168373ffffffffffffffffffffffffffffffffffffffff1614611db657611db581848661277b565b5b600073ffffffffffffffffffffffffffffffffffffffff168173ffffffffffffffffffffffffffffffffffffffff1614611e4757611df86000856000806125b6565b6001600360008373ffffffffffffffffffffffffffffffffffffffff1673ffffffffffffffffffffffffffffffffffffffff168152602001908152602001600020600082825403925050819055505b600073ffffffffffffffffffffffffffffffffffffffff168573ffffffffffffffffffffffffffffffffffffffff1614611eca576001600360008773ffffffffffffffffffffffffffffffffffffffff1673ffffffffffffffffffffffffffffffffffffffff168152602001908152602001600020600082825401925050819055505b846002600086815260200190815260200160002060006101000a81548173ffffffffffffffffffffffffffffffffffffffff021916908373ffffffffffffffffffffffffffffffffffffffff160217905550838573ffffffffffffffffffffffffffffffffffffffff168273ffffffffffffffffffffffffffffffffffffffff167fddf252ad1be2c89b69c2b068fc378daa952ba7f163c4a11628f55a4df523b3ef60405160405180910390a4809150509392505050565b600073ffffffffffffffffffffffffffffffffffffffff168273ffffffffffffffffffffffffffffffffffffffff1603611ff45760006040517f64a0ae92000000000000000000000000000000000000000000000000000000008152600401611feb9190612eb1565b60405180910390fd5b600061200283836000611d68565b9050600073ffffffffffffffffffffffffffffffffffffffff168173ffffffffffffffffffffffffffffffffffffffff160361207557816040517f7e27328900000000000000000000000000000000000000000000000000000000815260040161206c919061300c565b60405180910390fd5b8373ffffffffffffffffffffffffffffffffffffffff168173ffffffffffffffffffffffffffffffffffffffff16146120e9578382826040517f64283d7b0000000000000000000000000000000000000000000000000000000081526004016120e09392919061357b565b60405180910390fd5b50505050565b600073ffffffffffffffffffffffffffffffffffffffff168273ffffffffffffffffffffffffffffffffffffffff160361216057816040517f5b08ba180000000000000000000000000000000000000000000000000000000081526004016121579190612eb1565b60405180910390fd5b80600560008573ffffffffffffffffffffffffffffffffffffffff1673ffffffffffffffffffffffffffffffffffffffff16815260200190815260200160002060008473ffffffffffffffffffffffffffffffffffffffff1673ffffffffffffffffffffffffffffffffffffffff16815260200190815260200160002060006101000a81548160ff0219169083151502179055508173ffffffffffffffffffffffffffffffffffffffff168373ffffffffffffffffffffffffffffffffffffffff167f17307eab39ab6107e8899845ad3d59bd9653f200f220920489ca2b5937696c31836040516122519190612d40565b60405180910390a3505050565b60008373ffffffffffffffffffffffffffffffffffffffff163b111561240f578273ffffffffffffffffffffffffffffffffffffffff1663150b7a026122a2611d4e565b8685856040518563ffffffff1660e01b81526004016122c49493929190613b13565b6020604051808303816000875af192505050801561230057506040513d601f19601f820116820180604052508101906122fd9190613b74565b60015b612384573d8060008114612330576040519150601f19603f3d011682016040523d82523d6000602084013e612335565b606091505b50600081510361237c57836040517f64a0ae920000000000000000000000000000000000000000000000000000000081526004016123739190612eb1565b60405180910390fd5b805181602001fd5b63150b7a0260e01b7bffffffffffffffffffffffffffffffffffffffffffffffffffffffff1916817bffffffffffffffffffffffffffffffffffffffffffffffffffffffff19161461240d57836040517f64a0ae920000000000000000000000000000000000000000000000000000000081526004016124049190612eb1565b60405180910390fd5b505b50505050565b606060405180602001604052806000815250905090565b606061243782611c89565b506000612442612415565b90506000815111612462576040518060200160405280600081525061248d565b8061246c8461283f565b60405160200161247d929190613a2e565b6040516020818303038152906040525b915050919050565b6124af82826040518060200160405280600081525061290d565b5050565b806006600084815260200190815260200160002090816124d39190613d4d565b507ff8e1a15aba9398e019f0b49df1a4fde98ee17ae345cb5f6b5e2c27f5033e8ce782604051612503919061300c565b60405180910390a15050565b60007f01ffc9a7000000000000000000000000000000000000000000000000000000007bffffffffffffffffffffffffffffffffffffffffffffffffffffffff1916827bffffffffffffffffffffffffffffffffffffffffffffffffffffffff1916149050919050565b60006002600083815260200190815260200160002060009054906101000a900473ffffffffffffffffffffffffffffffffffffffff169050919050565b80806125ef5750600073ffffffffffffffffffffffffffffffffffffffff168273ffffffffffffffffffffffffffffffffffffffff1614155b156127235760006125ff84611c89565b9050600073ffffffffffffffffffffffffffffffffffffffff168373ffffffffffffffffffffffffffffffffffffffff161415801561266a57508273ffffffffffffffffffffffffffffffffffffffff168173ffffffffffffffffffffffffffffffffffffffff1614155b801561267d575061267b8184611625565b155b156126bf57826040517fa9fbf51f0000000000000000000000000000000000000000000000000000000081526004016126b69190612eb1565b60405180910390fd5b811561272157838573ffffffffffffffffffffffffffffffffffffffff168273ffffffffffffffffffffffffffffffffffffffff167f8c5be1e5ebec7d5bd14f71427d1e84f3dd0314c0f7b2291e5b200ac8c7c3b92560405160405180910390a45b505b836004600085815260200190815260200160002060006101000a81548173ffffffffffffffffffffffffffffffffffffffff021916908373ffffffffffffffffffffffffffffffffffffffff16021790555050505050565b612786838383612929565b61283a57600073ffffffffffffffffffffffffffffffffffffffff168373ffffffffffffffffffffffffffffffffffffffff16036127fb57806040517f7e2732890000000000000000000000000000000000000000000000000000000081526004016127f2919061300c565b60405180910390fd5b81816040517f177e802f000000000000000000000000000000000000000000000000000000008152600401612831929190613e1f565b60405180910390fd5b505050565b60606000600161284e846129ea565b01905060008167ffffffffffffffff81111561286d5761286c6130dd565b5b6040519080825280601f01601f19166020018201604052801561289f5781602001600182028036833780820191505090505b509050600082602001820190505b600115612902578080600190039150507f3031323334353637383961626364656600000000000000000000000000000000600a86061a8153600a85816128f6576128f5613e48565b5b049450600085036128ad575b819350505050919050565b6129178383612b3d565b612924600084848461225e565b505050565b60008073ffffffffffffffffffffffffffffffffffffffff168373ffffffffffffffffffffffffffffffffffffffff16141580156129e157508273ffffffffffffffffffffffffffffffffffffffff168473ffffffffffffffffffffffffffffffffffffffff1614806129a257506129a18484611625565b5b806129e057508273ffffffffffffffffffffffffffffffffffffffff166129c883611d11565b73ffffffffffffffffffffffffffffffffffffffff16145b5b90509392505050565b600080600090507a184f03e93ff9f4daa797ed6e38ed64bf6a1f0100000000000000008310612a48577a184f03e93ff9f4daa797ed6e38ed64bf6a1f0100000000000000008381612a3e57612a3d613e48565b5b0492506040810190505b6d04ee2d6d415b85acef81000000008310612a85576d04ee2d6d415b85acef81000000008381612a7b57612a7a613e48565b5b0492506020810190505b662386f26fc100008310612ab457662386f26fc100008381612aaa57612aa9613e48565b5b0492506010810190505b6305f5e1008310612add576305f5e1008381612ad357612ad2613e48565b5b0492506008810190505b6127108310612b02576127108381612af857612af7613e48565b5b0492506004810190505b60648310612b255760648381612b1b57612b1a613e48565b5b0492506002810190505b600a8310612b34576001810190505b80915050919050565b600073ffffffffffffffffffffffffffffffffffffffff168273ffffffffffffffffffffffffffffffffffffffff1603612baf5760006040517f64a0ae92000000000000000000000000000000000000000000000000000000008152600401612ba69190612eb1565b60405180910390fd5b6000612bbd83836000611d68565b9050600073ffffffffffffffffffffffffffffffffffffffff168173ffffffffffffffffffffffffffffffffffffffff1614612c315760006040517f73c6ac6e000000000000000000000000000000000000000000000000000000008152600401612c289190612eb1565b60405180910390fd5b505050565b6040518060800160405280600073ffffffffffffffffffffffffffffffffffffffff168152602001600073ffffffffffffffffffffffffffffffffffffffff168152602001600015158152602001600081525090565b6000604051905090565b600080fd5b600080fd5b60007fffffffff0000000000000000000000000000000000000000000000000000000082169050919050565b612cd581612ca0565b8114612ce057600080fd5b50565b600081359050612cf281612ccc565b92915050565b600060208284031215612d0e57612d0d612c96565b5b6000612d1c84828501612ce3565b91505092915050565b60008115159050919050565b612d3a81612d25565b82525050565b6000602082019050612d556000830184612d31565b92915050565b600081519050919050565b600082825260208201905092915050565b60005b83811015612d95578082015181840152602081019050612d7a565b60008484015250505050565b6000601f19601f8301169050919050565b6000612dbd82612d5b565b612dc78185612d66565b9350612dd7818560208601612d77565b612de081612da1565b840191505092915050565b60006020820190508181036000830152612e058184612db2565b905092915050565b6000819050919050565b612e2081612e0d565b8114612e2b57600080fd5b50565b600081359050612e3d81612e17565b92915050565b600060208284031215612e5957612e58612c96565b5b6000612e6784828501612e2e565b91505092915050565b600073ffffffffffffffffffffffffffffffffffffffff82169050919050565b6000612e9b82612e70565b9050919050565b612eab81612e90565b82525050565b6000602082019050612ec66000830184612ea2565b92915050565b612ed581612e90565b8114612ee057600080fd5b50565b600081359050612ef281612ecc565b92915050565b60008060408385031215612f0f57612f0e612c96565b5b6000612f1d85828601612ee3565b9250506020612f2e85828601612e2e565b9150509250929050565b600080600060608486031215612f5157612f50612c96565b5b6000612f5f86828701612ee3565b9350506020612f7086828701612ee3565b9250506040612f8186828701612e2e565b9150509250925092565b612f9481612e0d565b82525050565b6000608082019050612faf6000830187612ea2565b612fbc6020830186612ea2565b612fc96040830185612d31565b612fd66060830184612f8b565b95945050505050565b600060208284031215612ff557612ff4612c96565b5b600061300384828501612ee3565b91505092915050565b60006020820190506130216000830184612f8b565b92915050565b61303081612d25565b811461303b57600080fd5b50565b60008135905061304d81613027565b92915050565b6000806040838503121561306a57613069612c96565b5b600061307885828601612ee3565b92505060206130898582860161303e565b9150509250929050565b600080604083850312156130aa576130a9612c96565b5b60006130b885828601612e2e565b92505060206130c985828601612e2e565b9150509250929050565b600080fd5b600080fd5b7f4e487b7100000000000000000000000000000000000000000000000000000000600052604160045260246000fd5b61311582612da1565b810181811067ffffffffffffffff82111715613134576131336130dd565b5b80604052505050565b6000613147612c8c565b9050613153828261310c565b919050565b600067ffffffffffffffff821115613173576131726130dd565b5b61317c82612da1565b9050602081019050919050565b82818337600083830152505050565b60006131ab6131a684613158565b61313d565b9050828152602081018484840111156131c7576131c66130d8565b5b6131d2848285613189565b509392505050565b600082601f8301126131ef576131ee6130d3565b5b81356131ff848260208601613198565b91505092915050565b6000806000806080858703121561322257613221612c96565b5b600061323087828801612ee3565b945050602061324187828801612ee3565b935050604061325287828801612e2e565b925050606085013567ffffffffffffffff81111561327357613272612c9b565b5b61327f878288016131da565b91505092959194509250565b600081519050919050565b600082825260208201905092915050565b6000819050602082019050919050565b6132c081612e90565b82525050565b6132cf81612d25565b82525050565b6132de81612e0d565b82525050565b6080820160008201516132fa60008501826132b7565b50602082015161330d60208501826132b7565b50604082015161332060408501826132c6565b50606082015161333360608501826132d5565b50505050565b600061334583836132e4565b60808301905092915050565b6000602082019050919050565b60006133698261328b565b6133738185613296565b935061337e836132a7565b8060005b838110156133af5781516133968882613339565b97506133a183613351565b925050600181019050613382565b5085935050505092915050565b600060208201905081810360008301526133d6818461335e565b905092915050565b600080604083850312156133f5576133f4612c96565b5b600061340385828601612ee3565b925050602061341485828601612ee3565b9150509250929050565b600067ffffffffffffffff821115613439576134386130dd565b5b61344282612da1565b9050602081019050919050565b600061346261345d8461341e565b61313d565b90508281526020810184848401111561347e5761347d6130d8565b5b613489848285613189565b509392505050565b600082601f8301126134a6576134a56130d3565b5b81356134b684826020860161344f565b91505092915050565b600080604083850312156134d6576134d5612c96565b5b60006134e485828601612e2e565b925050602083013567ffffffffffffffff81111561350557613504612c9b565b5b61351185828601613491565b9150509250929050565b7f4e487b7100000000000000000000000000000000000000000000000000000000600052602260045260246000fd5b6000600282049050600182168061356257607f821691505b6020821081036135755761357461351b565b5b50919050565b60006060820190506135906000830186612ea2565b61359d6020830185612f8b565b6135aa6040830184612ea2565b949350505050565b7f54686973204e4654206973206e6f74206c6973746564206f6e20746865206d6160008201527f726b6574706c6163652e00000000000000000000000000000000000000000000602082015250565b600061360e602a83612d66565b9150613619826135b2565b604082019050919050565b6000602082019050818103600083015261363d81613601565b9050919050565b7f4e487b7100000000000000000000000000000000000000000000000000000000600052601160045260246000fd5b600061367e82612e0d565b915061368983612e0d565b92508282019050808211156136a1576136a0613644565b5b92915050565b7f4e6f7420656e6f75676820457468657220746f206275792074686973204e4654600082015250565b60006136dd602083612d66565b91506136e8826136a7565b602082019050919050565b6000602082019050818103600083015261370c816136d0565b9050919050565b7f596f752063616e27742062757920796f7572206f776e204e465420416761696e60008201527f2100000000000000000000000000000000000000000000000000000000000000602082015250565b600061376f602183612d66565b915061377a82613713565b604082019050919050565b6000602082019050818103600083015261379e81613762565b9050919050565b7f4f6e6c79206f776e65722063616e20736574546865436f6d6d6973696f6e0000600082015250565b60006137db601e83612d66565b91506137e6826137a5565b602082019050919050565b6000602082019050818103600083015261380a816137ce565b9050919050565b7f596f752063616e27742073656c6c207468697320746f6b656e2061732069742060008201527f646f65736e27742062656c6f6e6720746f20796f752e00000000000000000000602082015250565b600061386d603683612d66565b915061387882613811565b604082019050919050565b6000602082019050818103600083015261389c81613860565b9050919050565b7f54686973204e465420697320616c7265616479206c69737465642e0000000000600082015250565b60006138d9601b83612d66565b91506138e4826138a3565b602082019050919050565b60006020820190508181036000830152613908816138cc565b9050919050565b7f5072696365206d7573742062652067726561746572207468616e203000000000600082015250565b6000613945601c83612d66565b91506139508261390f565b602082019050919050565b6000602082019050818103600083015261397481613938565b9050919050565b600061398682612e0d565b91507fffffffffffffffffffffffffffffffffffffffffffffffffffffffffffffffff82036139b8576139b7613644565b5b600182019050919050565b7f4e487b7100000000000000000000000000000000000000000000000000000000600052603260045260246000fd5b600081905092915050565b6000613a0882612d5b565b613a1281856139f2565b9350613a22818560208601612d77565b80840191505092915050565b6000613a3a82856139fd565b9150613a4682846139fd565b91508190509392505050565b7f50726963652073686f756c642062652067726561746572207468616e20300000600082015250565b6000613a88601e83612d66565b9150613a9382613a52565b602082019050919050565b60006020820190508181036000830152613ab781613a7b565b9050919050565b600081519050919050565b600082825260208201905092915050565b6000613ae582613abe565b613aef8185613ac9565b9350613aff818560208601612d77565b613b0881612da1565b840191505092915050565b6000608082019050613b286000830187612ea2565b613b356020830186612ea2565b613b426040830185612f8b565b8181036060830152613b548184613ada565b905095945050505050565b600081519050613b6e81612ccc565b92915050565b600060208284031215613b8a57613b89612c96565b5b6000613b9884828501613b5f565b91505092915050565b60008190508160005260206000209050919050565b60006020601f8301049050919050565b600082821b905092915050565b600060088302613c037fffffffffffffffffffffffffffffffffffffffffffffffffffffffffffffffff82613bc6565b613c0d8683613bc6565b95508019841693508086168417925050509392505050565b6000819050919050565b6000613c4a613c45613c4084612e0d565b613c25565b612e0d565b9050919050565b6000819050919050565b613c6483613c2f565b613c78613c7082613c51565b848454613bd3565b825550505050565b600090565b613c8d613c80565b613c98818484613c5b565b505050565b5b81811015613cbc57613cb1600082613c85565b600181019050613c9e565b5050565b601f821115613d0157613cd281613ba1565b613cdb84613bb6565b81016020851015613cea578190505b613cfe613cf685613bb6565b830182613c9d565b50505b505050565b600082821c905092915050565b6000613d2460001984600802613d06565b1980831691505092915050565b6000613d3d8383613d13565b9150826002028217905092915050565b613d5682612d5b565b67ffffffffffffffff811115613d6f57613d6e6130dd565b5b613d79825461354a565b613d84828285613cc0565b600060209050601f831160018114613db75760008415613da5578287015190505b613daf8582613d31565b865550613e17565b601f198416613dc586613ba1565b60005b82811015613ded57848901518255600182019150602085019450602081019050613dc8565b86831015613e0a5784890151613e06601f891682613d13565b8355505b6001600288020188555050505b505050505050565b6000604082019050613e346000830185612ea2565b613e416020830184612f8b565b9392505050565b7f4e487b7100000000000000000000000000000000000000000000000000000000600052601260045260246000fdfe5375636365737366756c6c79206c6973746564206f6e20746865206d61726b6574a264697066735822122010138d9d9d929834c42c589743d0142eba27cd62f20360fdba970419749cb3fd64736f6c63430008140033",
  "linkReferences": {},
  "deployedLinkReferences": {}
}