{
  "_format": "hh-sol-artifact-1",
  "contractName": "NFT_marketPlace",
  "sourceName": "contracts/NFT_marketPlace.sol",
  "abi": [
    {
      "inputs": [],
      "stateMutability": "nonpayable",
      "type": "constructor"
    },
    {
      "inputs": [
        {
          "internalType": "address",
          "name": "sender",
          "type": "address"
        },
        {
          "internalType": "uint256",
          "name": "tokenId",
          "type": "uint256"
        },
        {
          "internalType": "address",
          "name": "owner",
          "type": "address"
        }
      ],
      "name": "ERC721IncorrectOwner",
      "type": "error"
    },
    {
      "inputs": [
        {
          "internalType": "address",
          "name": "operator",
          "type": "address"
        },
        {
          "internalType": "uint256",
          "name": "tokenId",
          "type": "uint256"
        }
      ],
      "name": "ERC721InsufficientApproval",
      "type": "error"
    },
    {
      "inputs": [
        {
          "internalType": "address",
          "name": "approver",
          "type": "address"
        }
      ],
      "name": "ERC721InvalidApprover",
      "type": "error"
    },
    {
      "inputs": [
        {
          "internalType": "address",
          "name": "operator",
          "type": "address"
        }
      ],
      "name": "ERC721InvalidOperator",
      "type": "error"
    },
    {
      "inputs": [
        {
          "internalType": "address",
          "name": "owner",
          "type": "address"
        }
      ],
      "name": "ERC721InvalidOwner",
      "type": "error"
    },
    {
      "inputs": [
        {
          "internalType": "address",
          "name": "receiver",
          "type": "address"
        }
      ],
      "name": "ERC721InvalidReceiver",
      "type": "error"
    },
    {
      "inputs": [
        {
          "internalType": "address",
          "name": "sender",
          "type": "address"
        }
      ],
      "name": "ERC721InvalidSender",
      "type": "error"
    },
    {
      "inputs": [
        {
          "internalType": "uint256",
          "name": "tokenId",
          "type": "uint256"
        }
      ],
      "name": "ERC721NonexistentToken",
      "type": "error"
    },
    {
      "anonymous": false,
      "inputs": [
        {
          "indexed": true,
          "internalType": "address",
          "name": "owner",
          "type": "address"
        },
        {
          "indexed": true,
          "internalType": "address",
          "name": "approved",
          "type": "address"
        },
        {
          "indexed": true,
          "internalType": "uint256",
          "name": "tokenId",
          "type": "uint256"
        }
      ],
      "name": "Approval",
      "type": "event"
    },
    {
      "anonymous": false,
      "inputs": [
        {
          "indexed": true,
          "internalType": "address",
          "name": "owner",
          "type": "address"
        },
        {
          "indexed": true,
          "internalType": "address",
          "name": "operator",
          "type": "address"
        },
        {
          "indexed": false,
          "internalType": "bool",
          "name": "approved",
          "type": "bool"
        }
      ],
      "name": "ApprovalForAll",
      "type": "event"
    },
    {
      "anonymous": false,
      "inputs": [
        {
          "indexed": false,
          "internalType": "uint256",
          "name": "_fromTokenId",
          "type": "uint256"
        },
        {
          "indexed": false,
          "internalType": "uint256",
          "name": "_toTokenId",
          "type": "uint256"
        }
      ],
      "name": "BatchMetadataUpdate",
      "type": "event"
    },
    {
      "anonymous": false,
      "inputs": [
        {
          "indexed": false,
          "internalType": "uint256",
          "name": "_tokenId",
          "type": "uint256"
        }
      ],
      "name": "MetadataUpdate",
      "type": "event"
    },
    {
      "anonymous": false,
      "inputs": [
        {
          "indexed": true,
          "internalType": "uint256",
          "name": "tokenId",
          "type": "uint256"
        },
        {
          "indexed": true,
          "internalType": "address",
          "name": "owner",
          "type": "address"
        },
        {
          "indexed": false,
          "internalType": "uint256",
          "name": "listingPrice",
          "type": "uint256"
        }
      ],
      "name": "NFTCreatedOrListed",
      "type": "event"
    },
    {
      "anonymous": false,
      "inputs": [
        {
          "indexed": false,
          "internalType": "address",
          "name": "owner",
          "type": "address"
        },
        {
          "indexed": false,
          "internalType": "uint256",
          "name": "sales",
          "type": "uint256"
        }
      ],
      "name": "TopSellersInfo",
      "type": "event"
    },
    {
      "anonymous": false,
      "inputs": [
        {
          "indexed": true,
          "internalType": "address",
          "name": "from",
          "type": "address"
        },
        {
          "indexed": true,
          "internalType": "address",
          "name": "to",
          "type": "address"
        },
        {
          "indexed": true,
          "internalType": "uint256",
          "name": "tokenId",
          "type": "uint256"
        }
      ],
      "name": "Transfer",
      "type": "event"
    },
    {
      "inputs": [
        {
          "internalType": "uint256",
          "name": "",
          "type": "uint256"
        }
      ],
      "name": "NFT",
      "outputs": [
        {
          "internalType": "uint256",
          "name": "tokenId",
          "type": "uint256"
        },
        {
          "internalType": "address",
          "name": "owner",
          "type": "address"
        },
        {
          "internalType": "address",
          "name": "creatorAddress",
          "type": "address"
        },
        {
          "internalType": "bool",
          "name": "isListed",
          "type": "bool"
        },
        {
          "internalType": "uint256",
          "name": "listingPrice",
          "type": "uint256"
        },
        {
          "internalType": "string",
          "name": "tokenURI",
          "type": "string"
        }
      ],
      "stateMutability": "view",
      "type": "function"
    },
    {
      "inputs": [
        {
          "internalType": "address",
          "name": "to",
          "type": "address"
        },
        {
          "internalType": "uint256",
          "name": "tokenId",
          "type": "uint256"
        }
      ],
      "name": "approve",
      "outputs": [],
      "stateMutability": "nonpayable",
      "type": "function"
    },
    {
      "inputs": [
        {
          "internalType": "address",
          "name": "owner",
          "type": "address"
        }
      ],
      "name": "balanceOf",
      "outputs": [
        {
          "internalType": "uint256",
          "name": "",
          "type": "uint256"
        }
      ],
      "stateMutability": "view",
      "type": "function"
    },
    {
      "inputs": [
        {
          "internalType": "uint256",
          "name": "tokenId",
          "type": "uint256"
        }
      ],
      "name": "buyNFT",
      "outputs": [
        {
          "internalType": "bool",
          "name": "",
          "type": "bool"
        }
      ],
      "stateMutability": "payable",
      "type": "function"
    },
    {
      "inputs": [],
      "name": "commision",
      "outputs": [
        {
          "internalType": "uint256",
          "name": "",
          "type": "uint256"
        }
      ],
      "stateMutability": "view",
      "type": "function"
    },
    {
      "inputs": [
        {
          "internalType": "uint256",
          "name": "price",
          "type": "uint256"
        },
        {
          "internalType": "string",
          "name": "tokenURI",
          "type": "string"
        }
      ],
      "name": "createNFT",
      "outputs": [
        {
          "internalType": "uint256",
          "name": "",
          "type": "uint256"
        }
      ],
      "stateMutability": "nonpayable",
      "type": "function"
    },
    {
      "inputs": [
        {
          "internalType": "uint256",
          "name": "tokenId",
          "type": "uint256"
        }
      ],
      "name": "fetchNFT",
      "outputs": [
        {
          "components": [
            {
              "internalType": "uint256",
              "name": "tokenId",
              "type": "uint256"
            },
            {
              "internalType": "address",
              "name": "owner",
              "type": "address"
            },
            {
              "internalType": "address",
              "name": "creatorAddress",
              "type": "address"
            },
            {
              "internalType": "bool",
              "name": "isListed",
              "type": "bool"
            },
            {
              "internalType": "uint256",
              "name": "listingPrice",
              "type": "uint256"
            },
            {
              "internalType": "string",
              "name": "tokenURI",
              "type": "string"
            }
          ],
          "internalType": "struct NFT_marketPlace.nftInfo",
          "name": "",
          "type": "tuple"
        }
      ],
      "stateMutability": "view",
      "type": "function"
    },
    {
      "inputs": [
        {
          "internalType": "uint256",
          "name": "tokenId",
          "type": "uint256"
        }
      ],
      "name": "getApproved",
      "outputs": [
        {
          "internalType": "address",
          "name": "",
          "type": "address"
        }
      ],
      "stateMutability": "view",
      "type": "function"
    },
    {
      "inputs": [],
      "name": "getListedNFTS",
      "outputs": [
        {
          "components": [
            {
              "internalType": "uint256",
              "name": "tokenId",
              "type": "uint256"
            },
            {
              "internalType": "address",
              "name": "owner",
              "type": "address"
            },
            {
              "internalType": "address",
              "name": "creatorAddress",
              "type": "address"
            },
            {
              "internalType": "bool",
              "name": "isListed",
              "type": "bool"
            },
            {
              "internalType": "uint256",
              "name": "listingPrice",
              "type": "uint256"
            },
            {
              "internalType": "string",
              "name": "tokenURI",
              "type": "string"
            }
          ],
          "internalType": "struct NFT_marketPlace.nftInfo[]",
          "name": "",
          "type": "tuple[]"
        }
      ],
      "stateMutability": "view",
      "type": "function"
    },
    {
      "inputs": [],
      "name": "getMyListedNFTS",
      "outputs": [
        {
          "components": [
            {
              "internalType": "uint256",
              "name": "tokenId",
              "type": "uint256"
            },
            {
              "internalType": "address",
              "name": "owner",
              "type": "address"
            },
            {
              "internalType": "address",
              "name": "creatorAddress",
              "type": "address"
            },
            {
              "internalType": "bool",
              "name": "isListed",
              "type": "bool"
            },
            {
              "internalType": "uint256",
              "name": "listingPrice",
              "type": "uint256"
            },
            {
              "internalType": "string",
              "name": "tokenURI",
              "type": "string"
            }
          ],
          "internalType": "struct NFT_marketPlace.nftInfo[]",
          "name": "",
          "type": "tuple[]"
        }
      ],
      "stateMutability": "view",
      "type": "function"
    },
    {
      "inputs": [],
      "name": "getMyNFTS",
      "outputs": [
        {
          "components": [
            {
              "internalType": "uint256",
              "name": "tokenId",
              "type": "uint256"
            },
            {
              "internalType": "address",
              "name": "owner",
              "type": "address"
            },
            {
              "internalType": "address",
              "name": "creatorAddress",
              "type": "address"
            },
            {
              "internalType": "bool",
              "name": "isListed",
              "type": "bool"
            },
            {
              "internalType": "uint256",
              "name": "listingPrice",
              "type": "uint256"
            },
            {
              "internalType": "string",
              "name": "tokenURI",
              "type": "string"
            }
          ],
          "internalType": "struct NFT_marketPlace.nftInfo[]",
          "name": "",
          "type": "tuple[]"
        }
      ],
      "stateMutability": "view",
      "type": "function"
    },
    {
      "inputs": [
        {
          "internalType": "address",
          "name": "Id",
          "type": "address"
        }
      ],
      "name": "getOwnerNFTS",
      "outputs": [
        {
          "components": [
            {
              "internalType": "uint256",
              "name": "tokenId",
              "type": "uint256"
            },
            {
              "internalType": "address",
              "name": "owner",
              "type": "address"
            },
            {
              "internalType": "address",
              "name": "creatorAddress",
              "type": "address"
            },
            {
              "internalType": "bool",
              "name": "isListed",
              "type": "bool"
            },
            {
              "internalType": "uint256",
              "name": "listingPrice",
              "type": "uint256"
            },
            {
              "internalType": "string",
              "name": "tokenURI",
              "type": "string"
            }
          ],
          "internalType": "struct NFT_marketPlace.nftInfo[]",
          "name": "",
          "type": "tuple[]"
        }
      ],
      "stateMutability": "view",
      "type": "function"
    },
    {
      "inputs": [
        {
          "internalType": "address",
          "name": "owner",
          "type": "address"
        },
        {
          "internalType": "address",
          "name": "operator",
          "type": "address"
        }
      ],
      "name": "isApprovedForAll",
      "outputs": [
        {
          "internalType": "bool",
          "name": "",
          "type": "bool"
        }
      ],
      "stateMutability": "view",
      "type": "function"
    },
    {
      "inputs": [],
      "name": "name",
      "outputs": [
        {
          "internalType": "string",
          "name": "",
          "type": "string"
        }
      ],
      "stateMutability": "view",
      "type": "function"
    },
    {
      "inputs": [
        {
          "internalType": "uint256",
          "name": "tokenId",
          "type": "uint256"
        }
      ],
      "name": "ownerOf",
      "outputs": [
        {
          "internalType": "address",
          "name": "",
          "type": "address"
        }
      ],
      "stateMutability": "view",
      "type": "function"
    },
    {
      "inputs": [
        {
          "internalType": "uint256",
          "name": "tokenId",
          "type": "uint256"
        },
        {
          "internalType": "uint256",
          "name": "price",
          "type": "uint256"
        }
      ],
      "name": "resellNFT",
      "outputs": [
        {
          "internalType": "string",
          "name": "",
          "type": "string"
        }
      ],
      "stateMutability": "nonpayable",
      "type": "function"
    },
    {
      "inputs": [
        {
          "internalType": "address",
          "name": "from",
          "type": "address"
        },
        {
          "internalType": "address",
          "name": "to",
          "type": "address"
        },
        {
          "internalType": "uint256",
          "name": "tokenId",
          "type": "uint256"
        }
      ],
      "name": "safeTransferFrom",
      "outputs": [],
      "stateMutability": "nonpayable",
      "type": "function"
    },
    {
      "inputs": [
        {
          "internalType": "address",
          "name": "from",
          "type": "address"
        },
        {
          "internalType": "address",
          "name": "to",
          "type": "address"
        },
        {
          "internalType": "uint256",
          "name": "tokenId",
          "type": "uint256"
        },
        {
          "internalType": "bytes",
          "name": "data",
          "type": "bytes"
        }
      ],
      "name": "safeTransferFrom",
      "outputs": [],
      "stateMutability": "nonpayable",
      "type": "function"
    },
    {
      "inputs": [
        {
          "internalType": "address",
          "name": "operator",
          "type": "address"
        },
        {
          "internalType": "bool",
          "name": "approved",
          "type": "bool"
        }
      ],
      "name": "setApprovalForAll",
      "outputs": [],
      "stateMutability": "nonpayable",
      "type": "function"
    },
    {
      "inputs": [
        {
          "internalType": "uint256",
          "name": "val",
          "type": "uint256"
        }
      ],
      "name": "setCommision",
      "outputs": [
        {
          "internalType": "bool",
          "name": "",
          "type": "bool"
        }
      ],
      "stateMutability": "nonpayable",
      "type": "function"
    },
    {
      "inputs": [
        {
          "internalType": "bytes4",
          "name": "interfaceId",
          "type": "bytes4"
        }
      ],
      "name": "supportsInterface",
      "outputs": [
        {
          "internalType": "bool",
          "name": "",
          "type": "bool"
        }
      ],
      "stateMutability": "view",
      "type": "function"
    },
    {
      "inputs": [],
      "name": "symbol",
      "outputs": [
        {
          "internalType": "string",
          "name": "",
          "type": "string"
        }
      ],
      "stateMutability": "view",
      "type": "function"
    },
    {
      "inputs": [
        {
          "internalType": "uint256",
          "name": "tokenId",
          "type": "uint256"
        }
      ],
      "name": "tokenURI",
      "outputs": [
        {
          "internalType": "string",
          "name": "",
          "type": "string"
        }
      ],
      "stateMutability": "view",
      "type": "function"
    },
    {
      "inputs": [
        {
          "internalType": "address",
          "name": "from",
          "type": "address"
        },
        {
          "internalType": "address",
          "name": "to",
          "type": "address"
        },
        {
          "internalType": "uint256",
          "name": "tokenId",
          "type": "uint256"
        }
      ],
      "name": "transferFrom",
      "outputs": [],
      "stateMutability": "nonpayable",
      "type": "function"
    }
  ],
  "bytecode": "0x60806040526608e1bc9bf040006009553480156200001c57600080fd5b506040518060400160405280600f81526020016e4e4654204d61726b6574506c61636560881b815250604051806040016040528060068152602001651391951352d560d21b81525081600090816200007591906200014e565b5060016200008482826200014e565b50506000600755506001600855600a80546001600160a01b031916331790556200021a565b634e487b7160e01b600052604160045260246000fd5b600181811c90821680620000d457607f821691505b602082108103620000f557634e487b7160e01b600052602260045260246000fd5b50919050565b601f8211156200014957600081815260208120601f850160051c81016020861015620001245750805b601f850160051c820191505b81811015620001455782815560010162000130565b5050505b505050565b81516001600160401b038111156200016a576200016a620000a9565b62000182816200017b8454620000bf565b84620000fb565b602080601f831160018114620001ba5760008415620001a15750858301515b600019600386901b1c1916600185901b17855562000145565b600085815260208120601f198616915b82811015620001eb57888601518255948401946001909101908401620001ca565b50858210156200020a5787850151600019600388901b60f8161c191681555b5050505050600190811b01905550565b6128e7806200022a6000396000f3fe60806040526004361061014b5760003560e01c8063a22cb465116100b6578063c29612231161006f578063c2961223146103c1578063c87b56dd146103d6578063deb1250d146103f6578063e985e9c514610423578063e9e8e96214610443578063f32b51241461045857600080fd5b8063a22cb46514610316578063a9852ab614610336578063ac3dfc7314610356578063b88d4fde14610376578063b95edbf914610396578063b96f2495146103ac57600080fd5b806342842e0e1161010857806342842e0e146102535780634e69349e1461027357806351ed8288146102a05780636352211e146102b357806370a08231146102d357806395d89b411461030157600080fd5b806301ffc9a71461015057806306fdde0314610185578063081812fc146101a7578063095ea7b3146101df57806323b872dd1461020157806333f418b814610221575b600080fd5b34801561015c57600080fd5b5061017061016b36600461222c565b610478565b60405190151581526020015b60405180910390f35b34801561019157600080fd5b5061019a6104a3565b60405161017c9190612299565b3480156101b357600080fd5b506101c76101c23660046122ac565b610535565b6040516001600160a01b03909116815260200161017c565b3480156101eb57600080fd5b506101ff6101fa3660046122e1565b61055e565b005b34801561020d57600080fd5b506101ff61021c36600461230b565b61056d565b34801561022d57600080fd5b5061024161023c3660046122ac565b6105fd565b60405161017c96959493929190612347565b34801561025f57600080fd5b506101ff61026e36600461230b565b6106cf565b34801561027f57600080fd5b5061029361028e366004612394565b6106ef565b60405161017c9190612406565b6101706102ae3660046122ac565b610956565b3480156102bf57600080fd5b506101c76102ce3660046122ac565b610c03565b3480156102df57600080fd5b506102f36102ee366004612394565b610c0e565b60405190815260200161017c565b34801561030d57600080fd5b5061019a610c56565b34801561032257600080fd5b506101ff610331366004612468565b610c65565b34801561034257600080fd5b506101706103513660046122ac565b610c70565b34801561036257600080fd5b5061019a6103713660046124a4565b610cd6565b34801561038257600080fd5b506101ff610391366004612552565b610ea1565b3480156103a257600080fd5b506102f360095481565b3480156103b857600080fd5b50610293610eb9565b3480156103cd57600080fd5b506102936110cf565b3480156103e257600080fd5b5061019a6103f13660046122ac565b611326565b34801561040257600080fd5b506104166104113660046122ac565b611437565b60405161017c91906125ce565b34801561042f57600080fd5b5061017061043e3660046125e1565b61153d565b34801561044f57600080fd5b5061029361156b565b34801561046457600080fd5b506102f3610473366004612614565b6117c4565b60006001600160e01b03198216632483248360e11b148061049d575061049d8261192c565b92915050565b6060600080546104b29061266f565b80601f01602080910402602001604051908101604052809291908181526020018280546104de9061266f565b801561052b5780601f106105005761010080835404028352916020019161052b565b820191906000526020600020905b81548152906001019060200180831161050e57829003601f168201915b5050505050905090565b60006105408261197c565b506000828152600460205260409020546001600160a01b031661049d565b6105698282336119b5565b5050565b6001600160a01b03821661059c57604051633250574960e11b8152600060048201526024015b60405180910390fd5b60006105a98383336119c2565b9050836001600160a01b0316816001600160a01b0316146105f7576040516364283d7b60e01b81526001600160a01b0380861660048301526024820184905282166044820152606401610593565b50505050565b600b602052600090815260409020805460018201546002830154600384015460048501805494956001600160a01b039485169594841694600160a01b90940460ff169390919061064c9061266f565b80601f01602080910402602001604051908101604052809291908181526020018280546106789061266f565b80156106c55780601f1061069a576101008083540402835291602001916106c5565b820191906000526020600020905b8154815290600101906020018083116106a857829003601f168201915b5050505050905086565b6106ea83838360405180602001604052806000815250610ea1565b505050565b60606000805b600854811015610768576000818152600b6020526040902060020154600160a01b900460ff16801561074357506000818152600b60205260409020600101546001600160a01b038581169116145b156107565781610752816126bf565b9250505b80610760816126bf565b9150506106f5565b5060008167ffffffffffffffff811115610784576107846124c6565b6040519080825280602002602001820160405280156107bd57816020015b6107aa6121c9565b8152602001906001900390816107a25790505b5090506000805b60085481101561094c576000818152600b6020526040902060020154600160a01b900460ff16801561081257506000818152600b60205260409020600101546001600160a01b038781169116145b1561093a576000818152600b6020908152604091829020825160c0810184528154815260018201546001600160a01b0390811693820193909352600282015492831693810193909352600160a01b90910460ff16151560608301526003810154608083015260048101805460a08401919061088c9061266f565b80601f01602080910402602001604051908101604052809291908181526020018280546108b89061266f565b80156109055780601f106108da57610100808354040283529160200191610905565b820191906000526020600020905b8154815290600101906020018083116108e857829003601f168201915b505050505081525050838381518110610920576109206126d8565b60200260200101819052508180610936906126bf565b9250505b80610944816126bf565b9150506107c4565b5090949350505050565b6000818152600b6020526040812060020154600160a01b900460ff1615156001146109d65760405162461bcd60e51b815260206004820152602a60248201527f54686973204e4654206973206e6f74206c6973746564206f6e20746865206d616044820152693935b2ba383630b1b29760b11b6064820152608401610593565b6009546000838152600b60205260409020600301546109f591906126ee565b341015610a445760405162461bcd60e51b815260206004820181905260248201527f4e6f7420656e6f75676820457468657220746f206275792074686973204e46546044820152606401610593565b6000828152600b6020526040902060010154336001600160a01b0390911603610ab95760405162461bcd60e51b815260206004820152602160248201527f596f752063616e27742062757920796f7572206f776e204e465420416761696e6044820152602160f81b6064820152608401610593565b6000828152600b6020526040902060010154610adf906001600160a01b03163384611abb565b6000828152600b6020526040808220600181015460039091015491516001600160a01b0390911692839280156108fc02929091818181858888f19350505050158015610b2f573d6000803e3d6000fd5b50600a546009546040516001600160a01b039092169181156108fc0291906000818181858888f19350505050158015610b6c573d6000803e3d6000fd5b506000838152600b6020908152604091829020600181015460039091015483516001600160a01b039092168252918101919091527fcdb9429b1a166478a39515b9d7c0f63e93686f164dd70d16414f5816e54a682a910160405180910390a150506000908152600b60205260409020600180820180546001600160a01b031916331790556002909101805460ff60a01b1916905590565b600061049d8261197c565b60006001600160a01b038216610c3a576040516322718ad960e21b815260006004820152602401610593565b506001600160a01b031660009081526003602052604090205490565b6060600180546104b29061266f565b610569338383611b6b565b600a546000906001600160a01b03163314610ccd5760405162461bcd60e51b815260206004820152601e60248201527f4f6e6c79206f776e65722063616e20736574546865436f6d6d6973696f6e00006044820152606401610593565b50600955600190565b6000828152600b60205260409020600101546060906001600160a01b03163314610d615760405162461bcd60e51b815260206004820152603660248201527f596f752063616e27742073656c6c207468697320746f6b656e206173206974206044820152753237b2b9b713ba103132b637b733903a37903cb7ba9760511b6064820152608401610593565b6000838152600b6020526040902060020154600160a01b900460ff1615610dca5760405162461bcd60e51b815260206004820152601b60248201527f54686973204e465420697320616c7265616479206c69737465642e00000000006044820152606401610593565b60008211610e1a5760405162461bcd60e51b815260206004820152601c60248201527f5072696365206d7573742062652067726561746572207468616e2030000000006044820152606401610593565b6000838152600b60205260409081902060028101805460ff60a01b1916600160a01b17905560030183905551339084907f63ed0349d75a3f799c687ea2cd41bed2284a1f7764e6d482d7a861d87ba4620190610e799086815260200190565b60405180910390a3604051806060016040528060218152602001612891602191399392505050565b610eac84848461056d565b6105f73385858585611c0a565b60606000805b600854811015610f0a576000818152600b6020526040902060020154600160a01b900460ff1615610ef85781610ef4816126bf565b9250505b80610f02816126bf565b915050610ebf565b5060008167ffffffffffffffff811115610f2657610f266124c6565b604051908082528060200260200182016040528015610f5f57816020015b610f4c6121c9565b815260200190600190039081610f445790505b5090506000805b6008548110156110c6576000818152600b6020526040902060020154600160a01b900460ff16156110b4576000818152600b6020908152604091829020825160c0810184528154815260018201546001600160a01b0390811693820193909352600282015492831693810193909352600160a01b90910460ff16151560608301526003810154608083015260048101805460a0840191906110069061266f565b80601f01602080910402602001604051908101604052809291908181526020018280546110329061266f565b801561107f5780601f106110545761010080835404028352916020019161107f565b820191906000526020600020905b81548152906001019060200180831161106257829003601f168201915b50505050508152505083838151811061109a5761109a6126d8565b602002602001018190525081806110b0906126bf565b9250505b806110be816126bf565b915050610f66565b50909392505050565b60606000805b600854811015611145576000818152600b6020526040902060020154600160a01b900460ff16801561112057506000818152600b60205260409020600101546001600160a01b031633145b15611133578161112f816126bf565b9250505b8061113d816126bf565b9150506110d5565b5060008167ffffffffffffffff811115611161576111616124c6565b60405190808252806020026020018201604052801561119a57816020015b6111876121c9565b81526020019060019003908161117f5790505b5090506000805b6008548110156110c6576000818152600b6020526040902060020154600160a01b900460ff1680156111ec57506000818152600b60205260409020600101546001600160a01b031633145b15611314576000818152600b6020908152604091829020825160c0810184528154815260018201546001600160a01b0390811693820193909352600282015492831693810193909352600160a01b90910460ff16151560608301526003810154608083015260048101805460a0840191906112669061266f565b80601f01602080910402602001604051908101604052809291908181526020018280546112929061266f565b80156112df5780601f106112b4576101008083540402835291602001916112df565b820191906000526020600020905b8154815290600101906020018083116112c257829003601f168201915b5050505050815250508383815181106112fa576112fa6126d8565b60200260200101819052508180611310906126bf565b9250505b8061131e816126bf565b9150506111a1565b60606113318261197c565b506000828152600660205260408120805461134b9061266f565b80601f01602080910402602001604051908101604052809291908181526020018280546113779061266f565b80156113c45780601f10611399576101008083540402835291602001916113c4565b820191906000526020600020905b8154815290600101906020018083116113a757829003601f168201915b5050505050905060006113e260408051602081019091526000815290565b905080516000036113f4575092915050565b81511561142657808260405160200161140e929190612701565b60405160208183030381529060405292505050919050565b61142f84611d35565b949350505050565b61143f6121c9565b6000828152600b6020908152604091829020825160c0810184528154815260018201546001600160a01b0390811693820193909352600282015492831693810193909352600160a01b90910460ff16151560608301526003810154608083015260048101805460a0840191906114b49061266f565b80601f01602080910402602001604051908101604052809291908181526020018280546114e09061266f565b801561152d5780601f106115025761010080835404028352916020019161152d565b820191906000526020600020905b81548152906001019060200180831161151057829003601f168201915b5050505050815250509050919050565b6001600160a01b03918216600090815260056020908152604080832093909416825291909152205460ff1690565b60606000805b6008548110156115e2576000818152600b6020526040902060020154600160a01b900460ff161580156115bd57506000818152600b60205260409020600101546001600160a01b031633145b156115d057816115cc816126bf565b9250505b806115da816126bf565b915050611571565b5060008167ffffffffffffffff8111156115fe576115fe6124c6565b60405190808252806020026020018201604052801561163757816020015b6116246121c9565b81526020019060019003908161161c5790505b5090506000805b6008548110156110c6576000818152600b6020526040902060020154600160a01b900460ff1615801561168a57506000818152600b60205260409020600101546001600160a01b031633145b156117b2576000818152600b6020908152604091829020825160c0810184528154815260018201546001600160a01b0390811693820193909352600282015492831693810193909352600160a01b90910460ff16151560608301526003810154608083015260048101805460a0840191906117049061266f565b80601f01602080910402602001604051908101604052809291908181526020018280546117309061266f565b801561177d5780601f106117525761010080835404028352916020019161177d565b820191906000526020600020905b81548152906001019060200180831161176057829003601f168201915b505050505081525050838381518110611798576117986126d8565b602002602001018190525081806117ae906126bf565b9250505b806117bc816126bf565b91505061163e565b60008083116118155760405162461bcd60e51b815260206004820152601e60248201527f50726963652073686f756c642062652067726561746572207468616e203000006044820152606401610593565b6008546118223382611daa565b61182c8184611dc4565b6040805160c081018252828152336020808301828152838501928352600160608501818152608086018b815260a087018b815260008a8152600b9096529790942086518155925191830180546001600160a01b039384166001600160a01b0319909116179055935160028301805495511515600160a01b026001600160a81b0319909616919092161793909317909255516003820155915190919060048201906118d69082612776565b505060088054915060006118e9836126bf565b9091555050604051848152339082907f63ed0349d75a3f799c687ea2cd41bed2284a1f7764e6d482d7a861d87ba462019060200160405180910390a39392505050565b60006001600160e01b031982166380ac58cd60e01b148061195d57506001600160e01b03198216635b5e139f60e01b145b8061049d57506301ffc9a760e01b6001600160e01b031983161461049d565b6000818152600260205260408120546001600160a01b03168061049d57604051637e27328960e01b815260048101849052602401610593565b6106ea8383836001611e14565b6000828152600260205260408120546001600160a01b03908116908316156119ef576119ef818486611f1a565b6001600160a01b03811615611a2d57611a0c600085600080611e14565b6001600160a01b038116600090815260036020526040902080546000190190555b6001600160a01b03851615611a5c576001600160a01b0385166000908152600360205260409020805460010190555b60008481526002602052604080822080546001600160a01b0319166001600160a01b0389811691821790925591518793918516917fddf252ad1be2c89b69c2b068fc378daa952ba7f163c4a11628f55a4df523b3ef91a4949350505050565b6001600160a01b038216611ae557604051633250574960e11b815260006004820152602401610593565b6000611af3838360006119c2565b90506001600160a01b038116611b1f57604051637e27328960e01b815260048101839052602401610593565b836001600160a01b0316816001600160a01b0316146105f7576040516364283d7b60e01b81526001600160a01b0380861660048301526024820184905282166044820152606401610593565b6001600160a01b038216611b9d57604051630b61174360e31b81526001600160a01b0383166004820152602401610593565b6001600160a01b03838116600081815260056020908152604080832094871680845294825291829020805460ff191686151590811790915591519182527f17307eab39ab6107e8899845ad3d59bd9653f200f220920489ca2b5937696c31910160405180910390a3505050565b6001600160a01b0383163b15611d2e57604051630a85bd0160e11b81526001600160a01b0384169063150b7a0290611c4c908890889087908790600401612836565b6020604051808303816000875af1925050508015611c87575060408051601f3d908101601f19168201909252611c8491810190612873565b60015b611cf0573d808015611cb5576040519150601f19603f3d011682016040523d82523d6000602084013e611cba565b606091505b508051600003611ce857604051633250574960e11b81526001600160a01b0385166004820152602401610593565b805181602001fd5b6001600160e01b03198116630a85bd0160e11b14611d2c57604051633250574960e11b81526001600160a01b0385166004820152602401610593565b505b5050505050565b6060611d408261197c565b506000611d5860408051602081019091526000815290565b90506000815111611d785760405180602001604052806000815250611da3565b80611d8284611f7e565b604051602001611d93929190612701565b6040516020818303038152906040525b9392505050565b610569828260405180602001604052806000815250612011565b6000828152600660205260409020611ddc8282612776565b506040518281527ff8e1a15aba9398e019f0b49df1a4fde98ee17ae345cb5f6b5e2c27f5033e8ce79060200160405180910390a15050565b8080611e2857506001600160a01b03821615155b15611eea576000611e388461197c565b90506001600160a01b03831615801590611e645750826001600160a01b0316816001600160a01b031614155b8015611e775750611e75818461153d565b155b15611ea05760405163a9fbf51f60e01b81526001600160a01b0384166004820152602401610593565b8115611ee85783856001600160a01b0316826001600160a01b03167f8c5be1e5ebec7d5bd14f71427d1e84f3dd0314c0f7b2291e5b200ac8c7c3b92560405160405180910390a45b505b5050600090815260046020526040902080546001600160a01b0319166001600160a01b0392909216919091179055565b611f25838383612029565b6106ea576001600160a01b038316611f5357604051637e27328960e01b815260048101829052602401610593565b60405163177e802f60e01b81526001600160a01b038316600482015260248101829052604401610593565b60606000611f8b8361208c565b600101905060008167ffffffffffffffff811115611fab57611fab6124c6565b6040519080825280601f01601f191660200182016040528015611fd5576020820181803683370190505b5090508181016020015b600019016f181899199a1a9b1b9c1cb0b131b232b360811b600a86061a8153600a8504945084611fdf57509392505050565b61201b8383612164565b6106ea336000858585611c0a565b60006001600160a01b0383161580159061142f5750826001600160a01b0316846001600160a01b031614806120635750612063848461153d565b8061142f5750506000908152600460205260409020546001600160a01b03908116911614919050565b60008072184f03e93ff9f4daa797ed6e38ed64bf6a1f0160401b83106120cb5772184f03e93ff9f4daa797ed6e38ed64bf6a1f0160401b830492506040015b6d04ee2d6d415b85acef810000000083106120f7576d04ee2d6d415b85acef8100000000830492506020015b662386f26fc10000831061211557662386f26fc10000830492506010015b6305f5e100831061212d576305f5e100830492506008015b612710831061214157612710830492506004015b60648310612153576064830492506002015b600a831061049d5760010192915050565b6001600160a01b03821661218e57604051633250574960e11b815260006004820152602401610593565b600061219c838360006119c2565b90506001600160a01b038116156106ea576040516339e3563760e11b815260006004820152602401610593565b6040518060c001604052806000815260200160006001600160a01b0316815260200160006001600160a01b0316815260200160001515815260200160008152602001606081525090565b6001600160e01b03198116811461222957600080fd5b50565b60006020828403121561223e57600080fd5b8135611da381612213565b60005b8381101561226457818101518382015260200161224c565b50506000910152565b60008151808452612285816020860160208601612249565b601f01601f19169290920160200192915050565b602081526000611da3602083018461226d565b6000602082840312156122be57600080fd5b5035919050565b80356001600160a01b03811681146122dc57600080fd5b919050565b600080604083850312156122f457600080fd5b6122fd836122c5565b946020939093013593505050565b60008060006060848603121561232057600080fd5b612329846122c5565b9250612337602085016122c5565b9150604084013590509250925092565b8681526001600160a01b0386811660208301528516604082015283151560608201526080810183905260c060a082018190526000906123889083018461226d565b98975050505050505050565b6000602082840312156123a657600080fd5b611da3826122c5565b805182526000602082015160018060a01b03808216602086015280604085015116604086015250506060820151151560608401526080820151608084015260a082015160c060a085015261142f60c085018261226d565b6000602080830181845280855180835260408601915060408160051b870101925083870160005b8281101561245b57603f198886030184526124498583516123af565b9450928501929085019060010161242d565b5092979650505050505050565b6000806040838503121561247b57600080fd5b612484836122c5565b91506020830135801515811461249957600080fd5b809150509250929050565b600080604083850312156124b757600080fd5b50508035926020909101359150565b634e487b7160e01b600052604160045260246000fd5b600067ffffffffffffffff808411156124f7576124f76124c6565b604051601f8501601f19908116603f0116810190828211818310171561251f5761251f6124c6565b8160405280935085815286868601111561253857600080fd5b858560208301376000602087830101525050509392505050565b6000806000806080858703121561256857600080fd5b612571856122c5565b935061257f602086016122c5565b925060408501359150606085013567ffffffffffffffff8111156125a257600080fd5b8501601f810187136125b357600080fd5b6125c2878235602084016124dc565b91505092959194509250565b602081526000611da360208301846123af565b600080604083850312156125f457600080fd5b6125fd836122c5565b915061260b602084016122c5565b90509250929050565b6000806040838503121561262757600080fd5b82359150602083013567ffffffffffffffff81111561264557600080fd5b8301601f8101851361265657600080fd5b612665858235602084016124dc565b9150509250929050565b600181811c9082168061268357607f821691505b6020821081036126a357634e487b7160e01b600052602260045260246000fd5b50919050565b634e487b7160e01b600052601160045260246000fd5b6000600182016126d1576126d16126a9565b5060010190565b634e487b7160e01b600052603260045260246000fd5b8082018082111561049d5761049d6126a9565b60008351612713818460208801612249565b835190830190612727818360208801612249565b01949350505050565b601f8211156106ea57600081815260208120601f850160051c810160208610156127575750805b601f850160051c820191505b81811015611d2c57828155600101612763565b815167ffffffffffffffff811115612790576127906124c6565b6127a48161279e845461266f565b84612730565b602080601f8311600181146127d957600084156127c15750858301515b600019600386901b1c1916600185901b178555611d2c565b600085815260208120601f198616915b82811015612808578886015182559484019460019091019084016127e9565b50858210156128265787850151600019600388901b60f8161c191681555b5050505050600190811b01905550565b6001600160a01b03858116825284166020820152604081018390526080606082018190526000906128699083018461226d565b9695505050505050565b60006020828403121561288557600080fd5b8151611da38161221356fe5375636365737366756c6c79206c6973746564206f6e20746865206d61726b6574a26469706673582212206c7680ea76d6824e3fee41795ebbdcd1273634920cac080040b19644fe3f58ff64736f6c63430008140033",
  "linkReferences": {},
  "deployedLinkReferences": {}
}