{
  "_format": "hh-sol-artifact-1",
  "contractName": "NFT_marketPlace",
  "sourceName": "contracts/NFT_marketPlace.sol",
  "abi": [
    {
      "inputs": [],
      "stateMutability": "nonpayable",
      "type": "constructor"
    },
    {
      "inputs": [
        {
          "internalType": "address",
          "name": "sender",
          "type": "address"
        },
        {
          "internalType": "uint256",
          "name": "tokenId",
          "type": "uint256"
        },
        {
          "internalType": "address",
          "name": "owner",
          "type": "address"
        }
      ],
      "name": "ERC721IncorrectOwner",
      "type": "error"
    },
    {
      "inputs": [
        {
          "internalType": "address",
          "name": "operator",
          "type": "address"
        },
        {
          "internalType": "uint256",
          "name": "tokenId",
          "type": "uint256"
        }
      ],
      "name": "ERC721InsufficientApproval",
      "type": "error"
    },
    {
      "inputs": [
        {
          "internalType": "address",
          "name": "approver",
          "type": "address"
        }
      ],
      "name": "ERC721InvalidApprover",
      "type": "error"
    },
    {
      "inputs": [
        {
          "internalType": "address",
          "name": "operator",
          "type": "address"
        }
      ],
      "name": "ERC721InvalidOperator",
      "type": "error"
    },
    {
      "inputs": [
        {
          "internalType": "address",
          "name": "owner",
          "type": "address"
        }
      ],
      "name": "ERC721InvalidOwner",
      "type": "error"
    },
    {
      "inputs": [
        {
          "internalType": "address",
          "name": "receiver",
          "type": "address"
        }
      ],
      "name": "ERC721InvalidReceiver",
      "type": "error"
    },
    {
      "inputs": [
        {
          "internalType": "address",
          "name": "sender",
          "type": "address"
        }
      ],
      "name": "ERC721InvalidSender",
      "type": "error"
    },
    {
      "inputs": [
        {
          "internalType": "uint256",
          "name": "tokenId",
          "type": "uint256"
        }
      ],
      "name": "ERC721NonexistentToken",
      "type": "error"
    },
    {
      "anonymous": false,
      "inputs": [
        {
          "indexed": true,
          "internalType": "address",
          "name": "owner",
          "type": "address"
        },
        {
          "indexed": true,
          "internalType": "address",
          "name": "approved",
          "type": "address"
        },
        {
          "indexed": true,
          "internalType": "uint256",
          "name": "tokenId",
          "type": "uint256"
        }
      ],
      "name": "Approval",
      "type": "event"
    },
    {
      "anonymous": false,
      "inputs": [
        {
          "indexed": true,
          "internalType": "address",
          "name": "owner",
          "type": "address"
        },
        {
          "indexed": true,
          "internalType": "address",
          "name": "operator",
          "type": "address"
        },
        {
          "indexed": false,
          "internalType": "bool",
          "name": "approved",
          "type": "bool"
        }
      ],
      "name": "ApprovalForAll",
      "type": "event"
    },
    {
      "anonymous": false,
      "inputs": [
        {
          "indexed": false,
          "internalType": "uint256",
          "name": "_fromTokenId",
          "type": "uint256"
        },
        {
          "indexed": false,
          "internalType": "uint256",
          "name": "_toTokenId",
          "type": "uint256"
        }
      ],
      "name": "BatchMetadataUpdate",
      "type": "event"
    },
    {
      "anonymous": false,
      "inputs": [
        {
          "indexed": false,
          "internalType": "uint256",
          "name": "_tokenId",
          "type": "uint256"
        }
      ],
      "name": "MetadataUpdate",
      "type": "event"
    },
    {
      "anonymous": false,
      "inputs": [
        {
          "indexed": true,
          "internalType": "uint256",
          "name": "tokenId",
          "type": "uint256"
        },
        {
          "indexed": true,
          "internalType": "address",
          "name": "owner",
          "type": "address"
        },
        {
          "indexed": false,
          "internalType": "uint256",
          "name": "listingPrice",
          "type": "uint256"
        }
      ],
      "name": "NFTCreatedOrListed",
      "type": "event"
    },
    {
      "anonymous": false,
      "inputs": [
        {
          "indexed": true,
          "internalType": "address",
          "name": "from",
          "type": "address"
        },
        {
          "indexed": true,
          "internalType": "address",
          "name": "to",
          "type": "address"
        },
        {
          "indexed": true,
          "internalType": "uint256",
          "name": "tokenId",
          "type": "uint256"
        }
      ],
      "name": "Transfer",
      "type": "event"
    },
    {
      "inputs": [
        {
          "internalType": "uint256",
          "name": "",
          "type": "uint256"
        }
      ],
      "name": "NFT",
      "outputs": [
        {
          "internalType": "address",
          "name": "owner",
          "type": "address"
        },
        {
          "internalType": "address",
          "name": "creatorAddress",
          "type": "address"
        },
        {
          "internalType": "bool",
          "name": "isListed",
          "type": "bool"
        },
        {
          "internalType": "uint256",
          "name": "listingPrice",
          "type": "uint256"
        }
      ],
      "stateMutability": "view",
      "type": "function"
    },
    {
      "inputs": [
        {
          "internalType": "address",
          "name": "to",
          "type": "address"
        },
        {
          "internalType": "uint256",
          "name": "tokenId",
          "type": "uint256"
        }
      ],
      "name": "approve",
      "outputs": [],
      "stateMutability": "nonpayable",
      "type": "function"
    },
    {
      "inputs": [
        {
          "internalType": "address",
          "name": "owner",
          "type": "address"
        }
      ],
      "name": "balanceOf",
      "outputs": [
        {
          "internalType": "uint256",
          "name": "",
          "type": "uint256"
        }
      ],
      "stateMutability": "view",
      "type": "function"
    },
    {
      "inputs": [
        {
          "internalType": "uint256",
          "name": "tokenId",
          "type": "uint256"
        }
      ],
      "name": "buyNFT",
      "outputs": [
        {
          "internalType": "bool",
          "name": "",
          "type": "bool"
        }
      ],
      "stateMutability": "payable",
      "type": "function"
    },
    {
      "inputs": [],
      "name": "commision",
      "outputs": [
        {
          "internalType": "uint256",
          "name": "",
          "type": "uint256"
        }
      ],
      "stateMutability": "view",
      "type": "function"
    },
    {
      "inputs": [
        {
          "internalType": "uint256",
          "name": "price",
          "type": "uint256"
        },
        {
          "internalType": "string",
          "name": "tokenURI",
          "type": "string"
        }
      ],
      "name": "createNFT",
      "outputs": [
        {
          "internalType": "uint256",
          "name": "",
          "type": "uint256"
        }
      ],
      "stateMutability": "nonpayable",
      "type": "function"
    },
    {
      "inputs": [
        {
          "internalType": "uint256",
          "name": "tokenId",
          "type": "uint256"
        }
      ],
      "name": "getApproved",
      "outputs": [
        {
          "internalType": "address",
          "name": "",
          "type": "address"
        }
      ],
      "stateMutability": "view",
      "type": "function"
    },
    {
      "inputs": [],
      "name": "getListedNFTS",
      "outputs": [
        {
          "components": [
            {
              "internalType": "address",
              "name": "owner",
              "type": "address"
            },
            {
              "internalType": "address",
              "name": "creatorAddress",
              "type": "address"
            },
            {
              "internalType": "bool",
              "name": "isListed",
              "type": "bool"
            },
            {
              "internalType": "uint256",
              "name": "listingPrice",
              "type": "uint256"
            }
          ],
          "internalType": "struct NFT_marketPlace.nftInfo[]",
          "name": "",
          "type": "tuple[]"
        }
      ],
      "stateMutability": "view",
      "type": "function"
    },
    {
      "inputs": [],
      "name": "getMyListedNFTS",
      "outputs": [
        {
          "components": [
            {
              "internalType": "address",
              "name": "owner",
              "type": "address"
            },
            {
              "internalType": "address",
              "name": "creatorAddress",
              "type": "address"
            },
            {
              "internalType": "bool",
              "name": "isListed",
              "type": "bool"
            },
            {
              "internalType": "uint256",
              "name": "listingPrice",
              "type": "uint256"
            }
          ],
          "internalType": "struct NFT_marketPlace.nftInfo[]",
          "name": "",
          "type": "tuple[]"
        }
      ],
      "stateMutability": "view",
      "type": "function"
    },
    {
      "inputs": [],
      "name": "getMyNFTS",
      "outputs": [
        {
          "components": [
            {
              "internalType": "address",
              "name": "owner",
              "type": "address"
            },
            {
              "internalType": "address",
              "name": "creatorAddress",
              "type": "address"
            },
            {
              "internalType": "bool",
              "name": "isListed",
              "type": "bool"
            },
            {
              "internalType": "uint256",
              "name": "listingPrice",
              "type": "uint256"
            }
          ],
          "internalType": "struct NFT_marketPlace.nftInfo[]",
          "name": "",
          "type": "tuple[]"
        }
      ],
      "stateMutability": "view",
      "type": "function"
    },
    {
      "inputs": [
        {
          "internalType": "address",
          "name": "owner",
          "type": "address"
        },
        {
          "internalType": "address",
          "name": "operator",
          "type": "address"
        }
      ],
      "name": "isApprovedForAll",
      "outputs": [
        {
          "internalType": "bool",
          "name": "",
          "type": "bool"
        }
      ],
      "stateMutability": "view",
      "type": "function"
    },
    {
      "inputs": [],
      "name": "name",
      "outputs": [
        {
          "internalType": "string",
          "name": "",
          "type": "string"
        }
      ],
      "stateMutability": "view",
      "type": "function"
    },
    {
      "inputs": [
        {
          "internalType": "uint256",
          "name": "tokenId",
          "type": "uint256"
        }
      ],
      "name": "ownerOf",
      "outputs": [
        {
          "internalType": "address",
          "name": "",
          "type": "address"
        }
      ],
      "stateMutability": "view",
      "type": "function"
    },
    {
      "inputs": [
        {
          "internalType": "uint256",
          "name": "tokenId",
          "type": "uint256"
        },
        {
          "internalType": "uint256",
          "name": "price",
          "type": "uint256"
        }
      ],
      "name": "resellNFT",
      "outputs": [
        {
          "internalType": "string",
          "name": "",
          "type": "string"
        }
      ],
      "stateMutability": "nonpayable",
      "type": "function"
    },
    {
      "inputs": [
        {
          "internalType": "address",
          "name": "from",
          "type": "address"
        },
        {
          "internalType": "address",
          "name": "to",
          "type": "address"
        },
        {
          "internalType": "uint256",
          "name": "tokenId",
          "type": "uint256"
        }
      ],
      "name": "safeTransferFrom",
      "outputs": [],
      "stateMutability": "nonpayable",
      "type": "function"
    },
    {
      "inputs": [
        {
          "internalType": "address",
          "name": "from",
          "type": "address"
        },
        {
          "internalType": "address",
          "name": "to",
          "type": "address"
        },
        {
          "internalType": "uint256",
          "name": "tokenId",
          "type": "uint256"
        },
        {
          "internalType": "bytes",
          "name": "data",
          "type": "bytes"
        }
      ],
      "name": "safeTransferFrom",
      "outputs": [],
      "stateMutability": "nonpayable",
      "type": "function"
    },
    {
      "inputs": [
        {
          "internalType": "address",
          "name": "operator",
          "type": "address"
        },
        {
          "internalType": "bool",
          "name": "approved",
          "type": "bool"
        }
      ],
      "name": "setApprovalForAll",
      "outputs": [],
      "stateMutability": "nonpayable",
      "type": "function"
    },
    {
      "inputs": [
        {
          "internalType": "uint256",
          "name": "val",
          "type": "uint256"
        }
      ],
      "name": "setCommision",
      "outputs": [
        {
          "internalType": "bool",
          "name": "",
          "type": "bool"
        }
      ],
      "stateMutability": "nonpayable",
      "type": "function"
    },
    {
      "inputs": [
        {
          "internalType": "bytes4",
          "name": "interfaceId",
          "type": "bytes4"
        }
      ],
      "name": "supportsInterface",
      "outputs": [
        {
          "internalType": "bool",
          "name": "",
          "type": "bool"
        }
      ],
      "stateMutability": "view",
      "type": "function"
    },
    {
      "inputs": [],
      "name": "symbol",
      "outputs": [
        {
          "internalType": "string",
          "name": "",
          "type": "string"
        }
      ],
      "stateMutability": "view",
      "type": "function"
    },
    {
      "inputs": [
        {
          "internalType": "uint256",
          "name": "tokenId",
          "type": "uint256"
        }
      ],
      "name": "tokenURI",
      "outputs": [
        {
          "internalType": "string",
          "name": "",
          "type": "string"
        }
      ],
      "stateMutability": "view",
      "type": "function"
    },
    {
      "inputs": [
        {
          "internalType": "address",
          "name": "from",
          "type": "address"
        },
        {
          "internalType": "address",
          "name": "to",
          "type": "address"
        },
        {
          "internalType": "uint256",
          "name": "tokenId",
          "type": "uint256"
        }
      ],
      "name": "transferFrom",
      "outputs": [],
      "stateMutability": "nonpayable",
      "type": "function"
    }
  ],
  "bytecode": "0x60806040526608e1bc9bf0400060095534801561001b57600080fd5b506040518060400160405280600f81526020017f4e4654204d61726b6574506c61636500000000000000000000000000000000008152506040518060400160405280600681526020017f4e46544d4b54000000000000000000000000000000000000000000000000000081525081600090816100979190610350565b5080600190816100a79190610350565b5050506000600781905550600060088190555033600a60006101000a81548173ffffffffffffffffffffffffffffffffffffffff021916908373ffffffffffffffffffffffffffffffffffffffff160217905550610422565b600081519050919050565b7f4e487b7100000000000000000000000000000000000000000000000000000000600052604160045260246000fd5b7f4e487b7100000000000000000000000000000000000000000000000000000000600052602260045260246000fd5b6000600282049050600182168061018157607f821691505b6020821081036101945761019361013a565b5b50919050565b60008190508160005260206000209050919050565b60006020601f8301049050919050565b600082821b905092915050565b6000600883026101fc7fffffffffffffffffffffffffffffffffffffffffffffffffffffffffffffffff826101bf565b61020686836101bf565b95508019841693508086168417925050509392505050565b6000819050919050565b6000819050919050565b600061024d6102486102438461021e565b610228565b61021e565b9050919050565b6000819050919050565b61026783610232565b61027b61027382610254565b8484546101cc565b825550505050565b600090565b610290610283565b61029b81848461025e565b505050565b5b818110156102bf576102b4600082610288565b6001810190506102a1565b5050565b601f821115610304576102d58161019a565b6102de846101af565b810160208510156102ed578190505b6103016102f9856101af565b8301826102a0565b50505b505050565b600082821c905092915050565b600061032760001984600802610309565b1980831691505092915050565b60006103408383610316565b9150826002028217905092915050565b61035982610100565b67ffffffffffffffff8111156103725761037161010b565b5b61037c8254610169565b6103878282856102c3565b600060209050601f8311600181146103ba57600084156103a8578287015190505b6103b28582610334565b86555061041a565b601f1984166103c88661019a565b60005b828110156103f0578489015182556001820191506020850194506020810190506103cb565b8683101561040d5784890151610409601f891682610316565b8355505b6001600288020188555050505b505050505050565b613eb4806104316000396000f3fe6080604052600436106101355760003560e01c8063a22cb465116100ab578063b96f24951161006f578063b96f249514610466578063c296122314610491578063c87b56dd146104bc578063e985e9c5146104f9578063e9e8e96214610536578063f32b51241461056157610135565b8063a22cb4651461036f578063a9852ab614610398578063ac3dfc73146103d5578063b88d4fde14610412578063b95edbf91461043b57610135565b806333f418b8116100fd57806333f418b81461023157806342842e0e1461027157806351ed82881461029a5780636352211e146102ca57806370a082311461030757806395d89b411461034457610135565b806301ffc9a71461013a57806306fdde0314610177578063081812fc146101a2578063095ea7b3146101df57806323b872dd14610208575b600080fd5b34801561014657600080fd5b50610161600480360381019061015c9190612cde565b61059e565b60405161016e9190612d26565b60405180910390f35b34801561018357600080fd5b5061018c6105ff565b6040516101999190612dd1565b60405180910390f35b3480156101ae57600080fd5b506101c960048036038101906101c49190612e29565b610691565b6040516101d69190612e97565b60405180910390f35b3480156101eb57600080fd5b5061020660048036038101906102019190612ede565b6106ad565b005b34801561021457600080fd5b5061022f600480360381019061022a9190612f1e565b6106c3565b005b34801561023d57600080fd5b5061025860048036038101906102539190612e29565b6107c5565b6040516102689493929190612f80565b60405180910390f35b34801561027d57600080fd5b5061029860048036038101906102939190612f1e565b610842565b005b6102b460048036038101906102af9190612e29565b610862565b6040516102c19190612d26565b60405180910390f35b3480156102d657600080fd5b506102f160048036038101906102ec9190612e29565b610baa565b6040516102fe9190612e97565b60405180910390f35b34801561031357600080fd5b5061032e60048036038101906103299190612fc5565b610bbc565b60405161033b9190612ff2565b60405180910390f35b34801561035057600080fd5b50610359610c76565b6040516103669190612dd1565b60405180910390f35b34801561037b57600080fd5b5061039660048036038101906103919190613039565b610d08565b005b3480156103a457600080fd5b506103bf60048036038101906103ba9190612e29565b610d1e565b6040516103cc9190612d26565b60405180910390f35b3480156103e157600080fd5b506103fc60048036038101906103f79190613079565b610dc0565b6040516104099190612dd1565b60405180910390f35b34801561041e57600080fd5b50610439600480360381019061043491906131ee565b610fcd565b005b34801561044757600080fd5b50610450610ff2565b60405161045d9190612ff2565b60405180910390f35b34801561047257600080fd5b5061047b610ff8565b60405161048891906133a2565b60405180910390f35b34801561049d57600080fd5b506104a6611210565b6040516104b391906133a2565b60405180910390f35b3480156104c857600080fd5b506104e360048036038101906104de9190612e29565b611502565b6040516104f09190612dd1565b60405180910390f35b34801561050557600080fd5b50610520600480360381019061051b91906133c4565b611615565b60405161052d9190612d26565b60405180910390f35b34801561054257600080fd5b5061054b6116a9565b60405161055891906133a2565b60405180910390f35b34801561056d57600080fd5b50610588600480360381019061058391906134a5565b61199d565b6040516105959190612ff2565b60405180910390f35b6000634906490660e01b7bffffffffffffffffffffffffffffffffffffffffffffffffffffffff1916827bffffffffffffffffffffffffffffffffffffffffffffffffffffffff191614806105f857506105f782611b8b565b5b9050919050565b60606000805461060e90613530565b80601f016020809104026020016040519081016040528092919081815260200182805461063a90613530565b80156106875780601f1061065c57610100808354040283529160200191610687565b820191906000526020600020905b81548152906001019060200180831161066a57829003601f168201915b5050505050905090565b600061069c82611c6d565b506106a682611cf5565b9050919050565b6106bf82826106ba611d32565b611d3a565b5050565b600073ffffffffffffffffffffffffffffffffffffffff168273ffffffffffffffffffffffffffffffffffffffff16036107355760006040517f64a0ae9200000000000000000000000000000000000000000000000000000000815260040161072c9190612e97565b60405180910390fd5b60006107498383610744611d32565b611d4c565b90508373ffffffffffffffffffffffffffffffffffffffff168173ffffffffffffffffffffffffffffffffffffffff16146107bf578382826040517f64283d7b0000000000000000000000000000000000000000000000000000000081526004016107b693929190613561565b60405180910390fd5b50505050565b600b6020528060005260406000206000915090508060000160009054906101000a900473ffffffffffffffffffffffffffffffffffffffff16908060010160009054906101000a900473ffffffffffffffffffffffffffffffffffffffff16908060010160149054906101000a900460ff16908060020154905084565b61085d83838360405180602001604052806000815250610fcd565b505050565b600060011515600b600084815260200190815260200160002060010160149054906101000a900460ff161515146108ce576040517f08c379a00000000000000000000000000000000000000000000000000000000081526004016108c59061360a565b60405180910390fd5b600954600b6000848152602001908152602001600020600201546108f29190613659565b341015610934576040517f08c379a000000000000000000000000000000000000000000000000000000000815260040161092b906136d9565b60405180910390fd5b3373ffffffffffffffffffffffffffffffffffffffff16600b600084815260200190815260200160002060000160009054906101000a900473ffffffffffffffffffffffffffffffffffffffff1673ffffffffffffffffffffffffffffffffffffffff16036109d8576040517f08c379a00000000000000000000000000000000000000000000000000000000081526004016109cf9061376b565b60405180910390fd5b610a19600b600084815260200190815260200160002060000160009054906101000a900473ffffffffffffffffffffffffffffffffffffffff163384611f66565b6000600b600084815260200190815260200160002060000160009054906101000a900473ffffffffffffffffffffffffffffffffffffffff1690508073ffffffffffffffffffffffffffffffffffffffff166108fc600b6000868152602001908152602001600020600201549081150290604051600060405180830381858888f19350505050158015610ab0573d6000803e3d6000fd5b50600a60009054906101000a900473ffffffffffffffffffffffffffffffffffffffff1673ffffffffffffffffffffffffffffffffffffffff166108fc6009549081150290604051600060405180830381858888f19350505050158015610b1b573d6000803e3d6000fd5b5033600b600085815260200190815260200160002060000160006101000a81548173ffffffffffffffffffffffffffffffffffffffff021916908373ffffffffffffffffffffffffffffffffffffffff1602179055506000600b600085815260200190815260200160002060010160146101000a81548160ff0219169083151502179055506001915050919050565b6000610bb582611c6d565b9050919050565b60008073ffffffffffffffffffffffffffffffffffffffff168273ffffffffffffffffffffffffffffffffffffffff1603610c2f5760006040517f89c62b64000000000000000000000000000000000000000000000000000000008152600401610c269190612e97565b60405180910390fd5b600360008373ffffffffffffffffffffffffffffffffffffffff1673ffffffffffffffffffffffffffffffffffffffff168152602001908152602001600020549050919050565b606060018054610c8590613530565b80601f0160208091040260200160405190810160405280929190818152602001828054610cb190613530565b8015610cfe5780601f10610cd357610100808354040283529160200191610cfe565b820191906000526020600020905b815481529060010190602001808311610ce157829003601f168201915b5050505050905090565b610d1a610d13611d32565b83836120d3565b5050565b6000600a60009054906101000a900473ffffffffffffffffffffffffffffffffffffffff1673ffffffffffffffffffffffffffffffffffffffff163373ffffffffffffffffffffffffffffffffffffffff1614610db0576040517f08c379a0000000000000000000000000000000000000000000000000000000008152600401610da7906137d7565b60405180910390fd5b8160098190555060019050919050565b60603373ffffffffffffffffffffffffffffffffffffffff16600b600085815260200190815260200160002060000160009054906101000a900473ffffffffffffffffffffffffffffffffffffffff1673ffffffffffffffffffffffffffffffffffffffff1614610e66576040517f08c379a0000000000000000000000000000000000000000000000000000000008152600401610e5d90613869565b60405180910390fd5b60001515600b600085815260200190815260200160002060010160149054906101000a900460ff16151514610ed0576040517f08c379a0000000000000000000000000000000000000000000000000000000008152600401610ec7906138d5565b60405180910390fd5b60008211610f13576040517f08c379a0000000000000000000000000000000000000000000000000000000008152600401610f0a90613941565b60405180910390fd5b6001600b600085815260200190815260200160002060010160146101000a81548160ff02191690831515021790555081600b6000858152602001908152602001600020600201819055503373ffffffffffffffffffffffffffffffffffffffff16837f63ed0349d75a3f799c687ea2cd41bed2284a1f7764e6d482d7a861d87ba4620184604051610fa49190612ff2565b60405180910390a3604051806060016040528060218152602001613e5e60219139905092915050565b610fd88484846106c3565b610fec610fe3611d32565b85858585612242565b50505050565b60095481565b60606000805b60085481101561104d57600b600082815260200190815260200160002060010160149054906101000a900460ff161561104057818061103c90613961565b9250505b8080600101915050610ffe565b5060008167ffffffffffffffff81111561106a576110696130c3565b5b6040519080825280602002602001820160405280156110a357816020015b611090612c1c565b8152602001906001900390816110885790505b5090506000805b60085481101561120657600b600082815260200190815260200160002060010160149054906101000a900460ff16156111f957600b60008281526020019081526020016000206040518060800160405290816000820160009054906101000a900473ffffffffffffffffffffffffffffffffffffffff1673ffffffffffffffffffffffffffffffffffffffff1673ffffffffffffffffffffffffffffffffffffffff1681526020016001820160009054906101000a900473ffffffffffffffffffffffffffffffffffffffff1673ffffffffffffffffffffffffffffffffffffffff1673ffffffffffffffffffffffffffffffffffffffff1681526020016001820160149054906101000a900460ff161515151581526020016002820154815250508383815181106111df576111de6139a9565b5b602002602001018190525081806111f590613961565b9250505b80806001019150506110aa565b5081935050505090565b60606000805b6008548110156112d257600b600082815260200190815260200160002060010160149054906101000a900460ff1680156112b157503373ffffffffffffffffffffffffffffffffffffffff16600b600083815260200190815260200160002060000160009054906101000a900473ffffffffffffffffffffffffffffffffffffffff1673ffffffffffffffffffffffffffffffffffffffff16145b156112c55781806112c190613961565b9250505b8080600101915050611216565b5060008167ffffffffffffffff8111156112ef576112ee6130c3565b5b60405190808252806020026020018201604052801561132857816020015b611315612c1c565b81526020019060019003908161130d5790505b5090506000805b6008548110156114f857600b600082815260200190815260200160002060010160149054906101000a900460ff1680156113ca57503373ffffffffffffffffffffffffffffffffffffffff16600b600083815260200190815260200160002060000160009054906101000a900473ffffffffffffffffffffffffffffffffffffffff1673ffffffffffffffffffffffffffffffffffffffff16145b156114eb57600b60008281526020019081526020016000206040518060800160405290816000820160009054906101000a900473ffffffffffffffffffffffffffffffffffffffff1673ffffffffffffffffffffffffffffffffffffffff1673ffffffffffffffffffffffffffffffffffffffff1681526020016001820160009054906101000a900473ffffffffffffffffffffffffffffffffffffffff1673ffffffffffffffffffffffffffffffffffffffff1673ffffffffffffffffffffffffffffffffffffffff1681526020016001820160149054906101000a900460ff161515151581526020016002820154815250508383815181106114d1576114d06139a9565b5b602002602001018190525081806114e790613961565b9250505b808060010191505061132f565b5081935050505090565b606061150d82611c6d565b50600060066000848152602001908152602001600020805461152e90613530565b80601f016020809104026020016040519081016040528092919081815260200182805461155a90613530565b80156115a75780601f1061157c576101008083540402835291602001916115a7565b820191906000526020600020905b81548152906001019060200180831161158a57829003601f168201915b5050505050905060006115b86123f3565b905060008151036115cd578192505050611610565b6000825111156116025780826040516020016115ea929190613a14565b60405160208183030381529060405292505050611610565b61160b8461240a565b925050505b919050565b6000600560008473ffffffffffffffffffffffffffffffffffffffff1673ffffffffffffffffffffffffffffffffffffffff16815260200190815260200160002060008373ffffffffffffffffffffffffffffffffffffffff1673ffffffffffffffffffffffffffffffffffffffff16815260200190815260200160002060009054906101000a900460ff16905092915050565b60606000805b60085481101561176c57600b600082815260200190815260200160002060010160149054906101000a900460ff1615801561174b57503373ffffffffffffffffffffffffffffffffffffffff16600b600083815260200190815260200160002060000160009054906101000a900473ffffffffffffffffffffffffffffffffffffffff1673ffffffffffffffffffffffffffffffffffffffff16145b1561175f57818061175b90613961565b9250505b80806001019150506116af565b5060008167ffffffffffffffff811115611789576117886130c3565b5b6040519080825280602002602001820160405280156117c257816020015b6117af612c1c565b8152602001906001900390816117a75790505b5090506000805b60085481101561199357600b600082815260200190815260200160002060010160149054906101000a900460ff1615801561186557503373ffffffffffffffffffffffffffffffffffffffff16600b600083815260200190815260200160002060000160009054906101000a900473ffffffffffffffffffffffffffffffffffffffff1673ffffffffffffffffffffffffffffffffffffffff16145b1561198657600b60008281526020019081526020016000206040518060800160405290816000820160009054906101000a900473ffffffffffffffffffffffffffffffffffffffff1673ffffffffffffffffffffffffffffffffffffffff1673ffffffffffffffffffffffffffffffffffffffff1681526020016001820160009054906101000a900473ffffffffffffffffffffffffffffffffffffffff1673ffffffffffffffffffffffffffffffffffffffff1673ffffffffffffffffffffffffffffffffffffffff1681526020016001820160149054906101000a900460ff1615151515815260200160028201548152505083838151811061196c5761196b6139a9565b5b6020026020010181905250818061198290613961565b9250505b80806001019150506117c9565b5081935050505090565b60008083116119e1576040517f08c379a00000000000000000000000000000000000000000000000000000000081526004016119d890613a84565b60405180910390fd5b600060085490506119f23382612473565b6119fc8184612491565b60405180608001604052803373ffffffffffffffffffffffffffffffffffffffff1681526020013373ffffffffffffffffffffffffffffffffffffffff16815260200160011515815260200185815250600b600083815260200190815260200160002060008201518160000160006101000a81548173ffffffffffffffffffffffffffffffffffffffff021916908373ffffffffffffffffffffffffffffffffffffffff16021790555060208201518160010160006101000a81548173ffffffffffffffffffffffffffffffffffffffff021916908373ffffffffffffffffffffffffffffffffffffffff16021790555060408201518160010160146101000a81548160ff0219169083151502179055506060820151816002015590505060086000815480929190611b2d90613961565b91905055503373ffffffffffffffffffffffffffffffffffffffff16817f63ed0349d75a3f799c687ea2cd41bed2284a1f7764e6d482d7a861d87ba4620186604051611b799190612ff2565b60405180910390a38091505092915050565b60007f80ac58cd000000000000000000000000000000000000000000000000000000007bffffffffffffffffffffffffffffffffffffffffffffffffffffffff1916827bffffffffffffffffffffffffffffffffffffffffffffffffffffffff19161480611c5657507f5b5e139f000000000000000000000000000000000000000000000000000000007bffffffffffffffffffffffffffffffffffffffffffffffffffffffff1916827bffffffffffffffffffffffffffffffffffffffffffffffffffffffff1916145b80611c665750611c65826124ed565b5b9050919050565b600080611c7983612557565b9050600073ffffffffffffffffffffffffffffffffffffffff168173ffffffffffffffffffffffffffffffffffffffff1603611cec57826040517f7e273289000000000000000000000000000000000000000000000000000000008152600401611ce39190612ff2565b60405180910390fd5b80915050919050565b60006004600083815260200190815260200160002060009054906101000a900473ffffffffffffffffffffffffffffffffffffffff169050919050565b600033905090565b611d478383836001612594565b505050565b600080611d5884612557565b9050600073ffffffffffffffffffffffffffffffffffffffff168373ffffffffffffffffffffffffffffffffffffffff1614611d9a57611d99818486612759565b5b600073ffffffffffffffffffffffffffffffffffffffff168173ffffffffffffffffffffffffffffffffffffffff1614611e2b57611ddc600085600080612594565b6001600360008373ffffffffffffffffffffffffffffffffffffffff1673ffffffffffffffffffffffffffffffffffffffff168152602001908152602001600020600082825403925050819055505b600073ffffffffffffffffffffffffffffffffffffffff168573ffffffffffffffffffffffffffffffffffffffff1614611eae576001600360008773ffffffffffffffffffffffffffffffffffffffff1673ffffffffffffffffffffffffffffffffffffffff168152602001908152602001600020600082825401925050819055505b846002600086815260200190815260200160002060006101000a81548173ffffffffffffffffffffffffffffffffffffffff021916908373ffffffffffffffffffffffffffffffffffffffff160217905550838573ffffffffffffffffffffffffffffffffffffffff168273ffffffffffffffffffffffffffffffffffffffff167fddf252ad1be2c89b69c2b068fc378daa952ba7f163c4a11628f55a4df523b3ef60405160405180910390a4809150509392505050565b600073ffffffffffffffffffffffffffffffffffffffff168273ffffffffffffffffffffffffffffffffffffffff1603611fd85760006040517f64a0ae92000000000000000000000000000000000000000000000000000000008152600401611fcf9190612e97565b60405180910390fd5b6000611fe683836000611d4c565b9050600073ffffffffffffffffffffffffffffffffffffffff168173ffffffffffffffffffffffffffffffffffffffff160361205957816040517f7e2732890000000000000000000000000000000000000000000000000000000081526004016120509190612ff2565b60405180910390fd5b8373ffffffffffffffffffffffffffffffffffffffff168173ffffffffffffffffffffffffffffffffffffffff16146120cd578382826040517f64283d7b0000000000000000000000000000000000000000000000000000000081526004016120c493929190613561565b60405180910390fd5b50505050565b600073ffffffffffffffffffffffffffffffffffffffff168273ffffffffffffffffffffffffffffffffffffffff160361214457816040517f5b08ba1800000000000000000000000000000000000000000000000000000000815260040161213b9190612e97565b60405180910390fd5b80600560008573ffffffffffffffffffffffffffffffffffffffff1673ffffffffffffffffffffffffffffffffffffffff16815260200190815260200160002060008473ffffffffffffffffffffffffffffffffffffffff1673ffffffffffffffffffffffffffffffffffffffff16815260200190815260200160002060006101000a81548160ff0219169083151502179055508173ffffffffffffffffffffffffffffffffffffffff168373ffffffffffffffffffffffffffffffffffffffff167f17307eab39ab6107e8899845ad3d59bd9653f200f220920489ca2b5937696c31836040516122359190612d26565b60405180910390a3505050565b60008373ffffffffffffffffffffffffffffffffffffffff163b11156123ec578273ffffffffffffffffffffffffffffffffffffffff1663150b7a02868685856040518563ffffffff1660e01b81526004016122a19493929190613af9565b6020604051808303816000875af19250505080156122dd57506040513d601f19601f820116820180604052508101906122da9190613b5a565b60015b612361573d806000811461230d576040519150601f19603f3d011682016040523d82523d6000602084013e612312565b606091505b50600081510361235957836040517f64a0ae920000000000000000000000000000000000000000000000000000000081526004016123509190612e97565b60405180910390fd5b805181602001fd5b63150b7a0260e01b7bffffffffffffffffffffffffffffffffffffffffffffffffffffffff1916817bffffffffffffffffffffffffffffffffffffffffffffffffffffffff1916146123ea57836040517f64a0ae920000000000000000000000000000000000000000000000000000000081526004016123e19190612e97565b60405180910390fd5b505b5050505050565b606060405180602001604052806000815250905090565b606061241582611c6d565b5060006124206123f3565b90506000815111612440576040518060200160405280600081525061246b565b8061244a8461281d565b60405160200161245b929190613a14565b6040516020818303038152906040525b915050919050565b61248d8282604051806020016040528060008152506128eb565b5050565b806006600084815260200190815260200160002090816124b19190613d33565b507ff8e1a15aba9398e019f0b49df1a4fde98ee17ae345cb5f6b5e2c27f5033e8ce7826040516124e19190612ff2565b60405180910390a15050565b60007f01ffc9a7000000000000000000000000000000000000000000000000000000007bffffffffffffffffffffffffffffffffffffffffffffffffffffffff1916827bffffffffffffffffffffffffffffffffffffffffffffffffffffffff1916149050919050565b60006002600083815260200190815260200160002060009054906101000a900473ffffffffffffffffffffffffffffffffffffffff169050919050565b80806125cd5750600073ffffffffffffffffffffffffffffffffffffffff168273ffffffffffffffffffffffffffffffffffffffff1614155b156127015760006125dd84611c6d565b9050600073ffffffffffffffffffffffffffffffffffffffff168373ffffffffffffffffffffffffffffffffffffffff161415801561264857508273ffffffffffffffffffffffffffffffffffffffff168173ffffffffffffffffffffffffffffffffffffffff1614155b801561265b57506126598184611615565b155b1561269d57826040517fa9fbf51f0000000000000000000000000000000000000000000000000000000081526004016126949190612e97565b60405180910390fd5b81156126ff57838573ffffffffffffffffffffffffffffffffffffffff168273ffffffffffffffffffffffffffffffffffffffff167f8c5be1e5ebec7d5bd14f71427d1e84f3dd0314c0f7b2291e5b200ac8c7c3b92560405160405180910390a45b505b836004600085815260200190815260200160002060006101000a81548173ffffffffffffffffffffffffffffffffffffffff021916908373ffffffffffffffffffffffffffffffffffffffff16021790555050505050565b61276483838361290f565b61281857600073ffffffffffffffffffffffffffffffffffffffff168373ffffffffffffffffffffffffffffffffffffffff16036127d957806040517f7e2732890000000000000000000000000000000000000000000000000000000081526004016127d09190612ff2565b60405180910390fd5b81816040517f177e802f00000000000000000000000000000000000000000000000000000000815260040161280f929190613e05565b60405180910390fd5b505050565b60606000600161282c846129d0565b01905060008167ffffffffffffffff81111561284b5761284a6130c3565b5b6040519080825280601f01601f19166020018201604052801561287d5781602001600182028036833780820191505090505b509050600082602001820190505b6001156128e0578080600190039150507f3031323334353637383961626364656600000000000000000000000000000000600a86061a8153600a85816128d4576128d3613e2e565b5b0494506000850361288b575b819350505050919050565b6128f58383612b23565b61290a612900611d32565b6000858585612242565b505050565b60008073ffffffffffffffffffffffffffffffffffffffff168373ffffffffffffffffffffffffffffffffffffffff16141580156129c757508273ffffffffffffffffffffffffffffffffffffffff168473ffffffffffffffffffffffffffffffffffffffff16148061298857506129878484611615565b5b806129c657508273ffffffffffffffffffffffffffffffffffffffff166129ae83611cf5565b73ffffffffffffffffffffffffffffffffffffffff16145b5b90509392505050565b600080600090507a184f03e93ff9f4daa797ed6e38ed64bf6a1f0100000000000000008310612a2e577a184f03e93ff9f4daa797ed6e38ed64bf6a1f0100000000000000008381612a2457612a23613e2e565b5b0492506040810190505b6d04ee2d6d415b85acef81000000008310612a6b576d04ee2d6d415b85acef81000000008381612a6157612a60613e2e565b5b0492506020810190505b662386f26fc100008310612a9a57662386f26fc100008381612a9057612a8f613e2e565b5b0492506010810190505b6305f5e1008310612ac3576305f5e1008381612ab957612ab8613e2e565b5b0492506008810190505b6127108310612ae8576127108381612ade57612add613e2e565b5b0492506004810190505b60648310612b0b5760648381612b0157612b00613e2e565b5b0492506002810190505b600a8310612b1a576001810190505b80915050919050565b600073ffffffffffffffffffffffffffffffffffffffff168273ffffffffffffffffffffffffffffffffffffffff1603612b955760006040517f64a0ae92000000000000000000000000000000000000000000000000000000008152600401612b8c9190612e97565b60405180910390fd5b6000612ba383836000611d4c565b9050600073ffffffffffffffffffffffffffffffffffffffff168173ffffffffffffffffffffffffffffffffffffffff1614612c175760006040517f73c6ac6e000000000000000000000000000000000000000000000000000000008152600401612c0e9190612e97565b60405180910390fd5b505050565b6040518060800160405280600073ffffffffffffffffffffffffffffffffffffffff168152602001600073ffffffffffffffffffffffffffffffffffffffff168152602001600015158152602001600081525090565b6000604051905090565b600080fd5b600080fd5b60007fffffffff0000000000000000000000000000000000000000000000000000000082169050919050565b612cbb81612c86565b8114612cc657600080fd5b50565b600081359050612cd881612cb2565b92915050565b600060208284031215612cf457612cf3612c7c565b5b6000612d0284828501612cc9565b91505092915050565b60008115159050919050565b612d2081612d0b565b82525050565b6000602082019050612d3b6000830184612d17565b92915050565b600081519050919050565b600082825260208201905092915050565b60005b83811015612d7b578082015181840152602081019050612d60565b60008484015250505050565b6000601f19601f8301169050919050565b6000612da382612d41565b612dad8185612d4c565b9350612dbd818560208601612d5d565b612dc681612d87565b840191505092915050565b60006020820190508181036000830152612deb8184612d98565b905092915050565b6000819050919050565b612e0681612df3565b8114612e1157600080fd5b50565b600081359050612e2381612dfd565b92915050565b600060208284031215612e3f57612e3e612c7c565b5b6000612e4d84828501612e14565b91505092915050565b600073ffffffffffffffffffffffffffffffffffffffff82169050919050565b6000612e8182612e56565b9050919050565b612e9181612e76565b82525050565b6000602082019050612eac6000830184612e88565b92915050565b612ebb81612e76565b8114612ec657600080fd5b50565b600081359050612ed881612eb2565b92915050565b60008060408385031215612ef557612ef4612c7c565b5b6000612f0385828601612ec9565b9250506020612f1485828601612e14565b9150509250929050565b600080600060608486031215612f3757612f36612c7c565b5b6000612f4586828701612ec9565b9350506020612f5686828701612ec9565b9250506040612f6786828701612e14565b9150509250925092565b612f7a81612df3565b82525050565b6000608082019050612f956000830187612e88565b612fa26020830186612e88565b612faf6040830185612d17565b612fbc6060830184612f71565b95945050505050565b600060208284031215612fdb57612fda612c7c565b5b6000612fe984828501612ec9565b91505092915050565b60006020820190506130076000830184612f71565b92915050565b61301681612d0b565b811461302157600080fd5b50565b6000813590506130338161300d565b92915050565b600080604083850312156130505761304f612c7c565b5b600061305e85828601612ec9565b925050602061306f85828601613024565b9150509250929050565b600080604083850312156130905761308f612c7c565b5b600061309e85828601612e14565b92505060206130af85828601612e14565b9150509250929050565b600080fd5b600080fd5b7f4e487b7100000000000000000000000000000000000000000000000000000000600052604160045260246000fd5b6130fb82612d87565b810181811067ffffffffffffffff8211171561311a576131196130c3565b5b80604052505050565b600061312d612c72565b905061313982826130f2565b919050565b600067ffffffffffffffff821115613159576131586130c3565b5b61316282612d87565b9050602081019050919050565b82818337600083830152505050565b600061319161318c8461313e565b613123565b9050828152602081018484840111156131ad576131ac6130be565b5b6131b884828561316f565b509392505050565b600082601f8301126131d5576131d46130b9565b5b81356131e584826020860161317e565b91505092915050565b6000806000806080858703121561320857613207612c7c565b5b600061321687828801612ec9565b945050602061322787828801612ec9565b935050604061323887828801612e14565b925050606085013567ffffffffffffffff81111561325957613258612c81565b5b613265878288016131c0565b91505092959194509250565b600081519050919050565b600082825260208201905092915050565b6000819050602082019050919050565b6132a681612e76565b82525050565b6132b581612d0b565b82525050565b6132c481612df3565b82525050565b6080820160008201516132e0600085018261329d565b5060208201516132f3602085018261329d565b50604082015161330660408501826132ac565b50606082015161331960608501826132bb565b50505050565b600061332b83836132ca565b60808301905092915050565b6000602082019050919050565b600061334f82613271565b613359818561327c565b93506133648361328d565b8060005b8381101561339557815161337c888261331f565b975061338783613337565b925050600181019050613368565b5085935050505092915050565b600060208201905081810360008301526133bc8184613344565b905092915050565b600080604083850312156133db576133da612c7c565b5b60006133e985828601612ec9565b92505060206133fa85828601612ec9565b9150509250929050565b600067ffffffffffffffff82111561341f5761341e6130c3565b5b61342882612d87565b9050602081019050919050565b600061344861344384613404565b613123565b905082815260208101848484011115613464576134636130be565b5b61346f84828561316f565b509392505050565b600082601f83011261348c5761348b6130b9565b5b813561349c848260208601613435565b91505092915050565b600080604083850312156134bc576134bb612c7c565b5b60006134ca85828601612e14565b925050602083013567ffffffffffffffff8111156134eb576134ea612c81565b5b6134f785828601613477565b9150509250929050565b7f4e487b7100000000000000000000000000000000000000000000000000000000600052602260045260246000fd5b6000600282049050600182168061354857607f821691505b60208210810361355b5761355a613501565b5b50919050565b60006060820190506135766000830186612e88565b6135836020830185612f71565b6135906040830184612e88565b949350505050565b7f54686973204e4654206973206e6f74206c6973746564206f6e20746865206d6160008201527f726b6574706c6163652e00000000000000000000000000000000000000000000602082015250565b60006135f4602a83612d4c565b91506135ff82613598565b604082019050919050565b60006020820190508181036000830152613623816135e7565b9050919050565b7f4e487b7100000000000000000000000000000000000000000000000000000000600052601160045260246000fd5b600061366482612df3565b915061366f83612df3565b92508282019050808211156136875761368661362a565b5b92915050565b7f4e6f7420656e6f75676820457468657220746f206275792074686973204e4654600082015250565b60006136c3602083612d4c565b91506136ce8261368d565b602082019050919050565b600060208201905081810360008301526136f2816136b6565b9050919050565b7f596f752063616e27742062757920796f7572206f776e204e465420416761696e60008201527f2100000000000000000000000000000000000000000000000000000000000000602082015250565b6000613755602183612d4c565b9150613760826136f9565b604082019050919050565b6000602082019050818103600083015261378481613748565b9050919050565b7f4f6e6c79206f776e65722063616e20736574546865436f6d6d6973696f6e0000600082015250565b60006137c1601e83612d4c565b91506137cc8261378b565b602082019050919050565b600060208201905081810360008301526137f0816137b4565b9050919050565b7f596f752063616e27742073656c6c207468697320746f6b656e2061732069742060008201527f646f65736e27742062656c6f6e6720746f20796f752e00000000000000000000602082015250565b6000613853603683612d4c565b915061385e826137f7565b604082019050919050565b6000602082019050818103600083015261388281613846565b9050919050565b7f54686973204e465420697320616c7265616479206c69737465642e0000000000600082015250565b60006138bf601b83612d4c565b91506138ca82613889565b602082019050919050565b600060208201905081810360008301526138ee816138b2565b9050919050565b7f5072696365206d7573742062652067726561746572207468616e203000000000600082015250565b600061392b601c83612d4c565b9150613936826138f5565b602082019050919050565b6000602082019050818103600083015261395a8161391e565b9050919050565b600061396c82612df3565b91507fffffffffffffffffffffffffffffffffffffffffffffffffffffffffffffffff820361399e5761399d61362a565b5b600182019050919050565b7f4e487b7100000000000000000000000000000000000000000000000000000000600052603260045260246000fd5b600081905092915050565b60006139ee82612d41565b6139f881856139d8565b9350613a08818560208601612d5d565b80840191505092915050565b6000613a2082856139e3565b9150613a2c82846139e3565b91508190509392505050565b7f50726963652073686f756c642062652067726561746572207468616e20300000600082015250565b6000613a6e601e83612d4c565b9150613a7982613a38565b602082019050919050565b60006020820190508181036000830152613a9d81613a61565b9050919050565b600081519050919050565b600082825260208201905092915050565b6000613acb82613aa4565b613ad58185613aaf565b9350613ae5818560208601612d5d565b613aee81612d87565b840191505092915050565b6000608082019050613b0e6000830187612e88565b613b1b6020830186612e88565b613b286040830185612f71565b8181036060830152613b3a8184613ac0565b905095945050505050565b600081519050613b5481612cb2565b92915050565b600060208284031215613b7057613b6f612c7c565b5b6000613b7e84828501613b45565b91505092915050565b60008190508160005260206000209050919050565b60006020601f8301049050919050565b600082821b905092915050565b600060088302613be97fffffffffffffffffffffffffffffffffffffffffffffffffffffffffffffffff82613bac565b613bf38683613bac565b95508019841693508086168417925050509392505050565b6000819050919050565b6000613c30613c2b613c2684612df3565b613c0b565b612df3565b9050919050565b6000819050919050565b613c4a83613c15565b613c5e613c5682613c37565b848454613bb9565b825550505050565b600090565b613c73613c66565b613c7e818484613c41565b505050565b5b81811015613ca257613c97600082613c6b565b600181019050613c84565b5050565b601f821115613ce757613cb881613b87565b613cc184613b9c565b81016020851015613cd0578190505b613ce4613cdc85613b9c565b830182613c83565b50505b505050565b600082821c905092915050565b6000613d0a60001984600802613cec565b1980831691505092915050565b6000613d238383613cf9565b9150826002028217905092915050565b613d3c82612d41565b67ffffffffffffffff811115613d5557613d546130c3565b5b613d5f8254613530565b613d6a828285613ca6565b600060209050601f831160018114613d9d5760008415613d8b578287015190505b613d958582613d17565b865550613dfd565b601f198416613dab86613b87565b60005b82811015613dd357848901518255600182019150602085019450602081019050613dae565b86831015613df05784890151613dec601f891682613cf9565b8355505b6001600288020188555050505b505050505050565b6000604082019050613e1a6000830185612e88565b613e276020830184612f71565b9392505050565b7f4e487b7100000000000000000000000000000000000000000000000000000000600052601260045260246000fdfe5375636365737366756c6c79206c6973746564206f6e20746865206d61726b6574a2646970667358221220db2a3eb504ef49ff3c4f230897c049b1ce5dfb375d4d0c988bf5f626ba0aa85e64736f6c634300081b0033",
  "linkReferences": {},
  "deployedLinkReferences": {}
}